:1000000000180020C10000002D200000F91F000092
:10001000F91F0000F91F0000F91F0000F91F000080
:10002000F91F0000F91F0000F91F00002D2000003B
:100030002D200000F91F00002D200000E91F000006
:100040005D0800002D2000002D2000002D20000064
:100050002D2000002D2000002D2000002D2000006C
:100060002D2000002D2000002D2000002D2000005C
:10007000751600008D240000FD1E00002D200000DC
:100080002D200000E90800002D2000002D20000098
:100090002D2000002D200000792E00002D200000D2
:1000A000890A00002D2000002D2000002D200000D6
:1000B0002D200000B52D00002D2000002D20000077
:1000C00038B501F0B7FF454A454B1A60454A464BE3
:1000D0001A60464A464B1A60464B0822197811426C
:1000E00002D019780A431A70434B2A221A7000234F
:1000F000424A43499A188A4204D24249C9580433B1
:100100001160F5E7404B41491A1F181D00238A4230
:1001100002D21360031CF6E73D493E4A5958101CB1
:1001200099500433C02BF7D100239A083A49920022
:10013000521803211940C9001568FF248C40A543BB
:100140002C1C80258D40291C214301331160202B5C
:10015000EBD1324B8A221860314B1A70314B24227A
:100160005A70A0221A709A799107FCD59A79D5060F
:10017000FCD498790C212B4A01400829F9D103219C
:100180001171402151719A799106FCD59A795506E1
:10019000FCD52549254A1160224A20211170997900
:1001A0000C220A400C2AFAD1214A224B1A60224A18
:1001B000224B1A60224B00221A60224B07221A603F
:1001C000214A224B1A6062B601F0C6FB05F032FDEF
:1001D00001F036FF00F0DCFAFEE7C046300004F024
:1001E00034800440823F0000388004400100000F4A
:1001F0003C80044002D0074000E0074060FDFF1F44
:1002000054060020306D000004070020440D00203B
:100210000000000000F9FF1F00E400E008ED00E02E
:100220000050064000400640000001104480044099
:10023000C0000505048004407FBB000014E000E01E
:1002400018E000E010E000E00000202020ED00E0D9
:10025000FFFFFFFFFFFFFFFFFFFFFFFFFFFFFFFFAE
:10026000FFFFFFFFFFFFFFFFFFFFFFFFFFFFFFFF9E
:10027000FFFFFFFFFFFFFFFFFFFFFFFFFFFFFFFF8E
:10028000FFFFFFFFFFFFFFFFFFFFFFFFFFFFFFFF7E
:10029000FFFFFFFFFFFFFFFFFFFFFFFFFFFFFFFF6E
:1002A000FFFFFFFFFFFFFFFFFFFFFFFFFFFFFFFF5E
:1002B000FFFFFFFFFFFFFFFFFFFFFFFFFFFFFFFF4E
:1002C000FFFFFFFFFFFFFFFFFFFFFFFFFFFFFFFF3E
:1002D000FFFFFFFFFFFFFFFFFFFFFFFFFFFFFFFF2E
:1002E000FFFFFFFFFFFFFFFFFFFFFFFFFFFFFFFF1E
:1002F000FFFFFFFFFFFFFFFFFFFFFFFFFFFFFFFF0E
:10030000FFFFFFFFFFFFFFFFFFFFFFFFFFFFFFFFFD
:10031000FFFFFFFFFFFFFFFFFFFFFFFFFFFFFFFFED
:10032000FFFFFFFFFFFFFFFFFFFFFFFFFFFFFFFFDD
:10033000FFFFFFFFFFFFFFFFFFFFFFFFFFFFFFFFCD
:10034000FFFFFFFFFFFFFFFFFFFFFFFFFFFFFFFFBD
:10035000FFFFFFFFFFFFFFFFFFFFFFFFFFFFFFFFAD
:10036000FFFFFFFFFFFFFFFFFFFFFFFFFFFFFFFF9D
:10037000FFFFFFFFFFFFFFFFFFFFFFFFFFFFFFFF8D
:10038000FFFFFFFFFFFFFFFFFFFFFFFFFFFFFFFF7D
:10039000FFFFFFFFFFFFFFFFFFFFFFFFFFFFFFFF6D
:1003A000FFFFFFFFFFFFFFFFFFFFFFFFFFFFFFFF5D
:1003B000FFFFFFFFFFFFFFFFFFFFFFFFFFFFFFFF4D
:1003C000FFFFFFFFFFFFFFFFFFFFFFFFFFFFFFFF3D
:1003D000FFFFFFFFFFFFFFFFFFFFFFFFFFFFFFFF2D
:1003E000FFFFFFFFFFFFFFFFFFFFFFFFFFFFFFFF1D
:1003F000FFFFFFFFFFFFFFFFFFFFFFFFFFFFFFFF0D
:10040000FFFFFFFFFFFFFFFFFFFFFFFFDEF9FFFF23
:1004100010B5064C2378002B07D1054B002B02D0DA
:10042000044800E000BF0123237010BD0007002036
:1004300000000000306D000008B5084B002B03D011
:100440000748084900E000BF07480368002B03D0B5
:10045000064B002B00D0984708BDC04600000000A6
:10046000306D00000407002054060020000000004A
:1004700038B50A230360051C002314225A43FE21C9
:10048000AA188905516000219160D1601161FC2199
:100490008905013351610A2BEFD10024201C04F09F
:1004A000C3FC05F0D1FA094B074A05F03DF805F009
:1004B0001DFB02F055FD142363430134EB189860D3
:1004C0000A2CEBD1281C38BD67D5E76A2BF6E33F31
:1004D000F0B5041C081CFE2185B0890502F080FDE2
:1004E0002768051C381C04F09FFC011C281C04F024
:1004F000DBF903A902F016FD0190039804F074FCE7
:100500001426351C45436519AB68391C013000932E
:1005100003F0FEFD4E43A419A068A96804F0EEFAAA
:10052000019904F0C1F9011C009803F06DFE05B0BB
:10053000F0BDF0B5041C85B00F1C002514266E43D9
:10054000A6193169F268381C009204F0ADF9011C5B
:10055000009803F059FE0135F0600A2DEED1002518
:1005600014266E43A619F168B368381C009304F092
:100570009BF9011C009803F047FE0135B0600A2D7D
:10058000EED10026301C09300A2103F0C1FD751C94
:100590000F1C281C0A2103F0BBFD14235F435E439C
:1005A0004B43A619E719E318B868B2689B68111C99
:1005B0000093B368371C0193331C10335B680293BC
:1005C000F368039304F09AFA0199061C009804F06A
:1005D00095FA011C301C03F017FE029A80231B06BB
:1005E000061C0399D01804F05FF9011C301C03F0BD
:1005F0000BFE38610A2D01D02E1CC3E705B0F0BDFB
:10060000F7B5520001938B1C071C0C1C9D18A61CEF
:10061000AE421BD0089B381C1968FFF759FF8A218E
:10062000C90504F041F903F0D7FD094B0199C01841
:1006300080B2089B2080186803F0E6FDFE21890542
:1006400002F0CEFC089B341C1860E0E7F7BDC04602
:10065000FF0700000B4B8022196812060A4310B5F1
:100660001A60094BC2221A700124084B01201C8019
:1006700001F058F9064B04349C42F6D1054B812217
:100680001A7010BD3C80044021F0034000F003408C
:100690000108000022F003401B4B02211A68F0B54C
:1006A0000A431A60194A802511686D0029431160B8
:1006B000174A0021174C11702668174F3E432660D9
:1006C000164C266835432560154C2060154C16489D
:1006D00004601C688020000420431860134B8820AD
:1006E000C0001860124B0324186820431860114B97
:1006F0001960114BFF211868884318600F4B0121C6
:100700001960ED231370F0BD3C800440408004402C
:10071000001002400C810040005040E00881004081
:100720000081004000F0034004810040007103405C
:10073000087103400070034000E400E000E100E0C5
:100740000C4B0D4900221A600A600C490C4A1160DA
:100750001A68CC210A431A600A4B0B4A19680A40EE
:100760008021C9010A431A60084B802292021A6054
:100770007047C0460080034004800340983A000060
:100780000880034010E400E0FF00FFFF00E100E00C
:10079000F0B5C3B005A8FFF76BFE002303930493E5
:1007A000EC23264D9B05039304AC039B05A8291C51
:1007B00080220094FFF724FF214F01263E7021493B
:1007C000802205A8039B0094FFF71AFF1E4B1E70A2
:1007D000FFF740FF281CFFF75FFF0D20311C01F0E1
:1007E00039F8FFF7ADFF194B1E78F6B2002E1BD07B
:1007F000174B1B78002B09D0039B009405A80F49C9
:100800008022FFF7FDFE01233B7009E0039B80225D
:10081000009405A80B49FFF7F3FE0B4B01221A7059
:100820000A4B00221A70DEE70A4D2B78002BDAD033
:1008300005A80949FFF77DFE2E70D4E700080020C7
:100840001C070020000900201F0700201E070020B1
:100850001D070020000A00200AD7233C1A4A10B5C1
:10086000116880235B040B401360184B141C19782B
:100870001A1C002903D016490978002916D11178CD
:10088000C9B200291AD1134B1878002816D0197054
:10089000114B1249196001231370114B01221A7078
:1008A000226880235B001343236010BD09490022A6
:1008B0000A700C48084908601A70EEE70D20012103
:1008C00000F0A8FFE9E7C046088100401D070020AE
:1008D0001C0700201F0700200081004000090020A5
:1008E0001E07002000080020044B80211A680A43DC
:1008F0001A60034B01221A707047C0460080034003
:10090000000A0020F0B50B4F02223B780A4E1A4332
:10091000D2000A4DB418606028788824002800D0DE
:10092000C82409040C43B45001225040534028709D
:100930003B70F0BD6C0A002000F8FF1FE40A0020A5
:10094000431E10B5032B0FD872B6084A9900885879
:10095000002807D044685B008C50054A01889C5AE7
:10096000611A995262B600E0002010BD5C0A0020B6
:100970002C0D0020431E0020032B09D872B6054A17
:100980009B009B58002B02D001305B68FAE762B6EF
:100990007047C046B00A002038B572B60123164A27
:1009A0009A18013A127811071CD5144A5C01A5580F
:1009B0009900002D05D1131908305860104BA35031
:1009C0000AE001242143C9008C58002C0AD1531895
:1009D000083058600B4B8B500B4B1A78013A1A7049
:1009E00062B608E00133052BD9D162B6064B00226E
:1009F0001A7001F003FE38BD6466000000F8FF1FA6
:100A000088004000C8004000DA0A0020421E10B5ED
:100A1000032A30D8022380001843174BC0001B184C
:100A200072B6164CA05C032809D803F0B9FA140278
:100A300016050833022011E0083304200EE01048A8
:100A4000920014580F4B002C01D1115001E098581E
:100A5000416099500EE0032000E00520A0540A1CDC
:100A600008325A608822180700D5C822098809046C
:100A70000A431A6062B610BD00F8FF1F180A002072
:100A8000B00A0020C00A0020F7B5B5490C780E1C4A
:100A9000E4B262071DD5B34B1B78002B16D0B24AC7
:100AA0001378DBB2002B05D0013BDBB21370002BB7
:100AB00000D100BEAD4A1378DBB2002B06D0013B5B
:100AC000DBB21370002B01D101F0D8FEA44D04233A
:100AD0002B700825221C2A4000D154E2A44BA54CBF
:100AE0001B78DBB21E099A08002E00D0DDE1D5008C
:100AF00065192F686A68B806000F01380C2800D9FC
:100B0000D0E103F057FA93019301CF01CF01CF0158
:100B1000CF01CF01CF01AC01CF01CF01CF010D003B
:100B200095491368954F526895482960954D9649A7
:100B300000263B607A609BB201222E602661A6618E
:100B400002708B4218D8D021C9008B4200D3E5E057
:100B5000812191408B4200D1C2E006D8802B00D188
:100B6000A9E0822B00D1ABE0F5E0884A934200D1A6
:100B7000C5E0A022D20017E085498B4200D152E1A6
:100B80000DD8882109018B4200D18EE090221201FC
:100B9000934200D0DFE0BA78724B1A7009E07D4AC8
:100BA000934200D1CFE07C4A0026934200D115E168
:100BB000D1E0A319196A090603D5586A083801F06B
:100BC0001DFD0836802EF4D100252E1C734AA8582E
:100BD000002805D04368019301F010FD0198F7E764
:100BE0006E496F4B6F4A4851E850A858002805D00D
:100BF0004368019301F002FD0198F7E76A4B6B4AE5
:100C0000E8507300D0526749694B4851F05C023894
:100C1000032807D803F0C4F902040204002200E00C
:100C200001229A5501360435042ECFD1614A0023A2
:100C300013700125161C604BEA18604B9200EB18EC
:100C4000013B1B781370190720D501F0B9FC6B012B
:100C5000002805D0E21808305060594AE25003E0FD
:100C6000E05033780133337001F0AAFC0122AB006D
:100C70001343DB00002805D0E218083050603E4ADC
:100C8000E25003E0E050337801333370AB000222CE
:100C90001A43D2000021A15003221343934001358F
:100CA000E150052DC7D10E1C98E02E4B454C1B780A
:100CB000161C237093E0434C2670667002268EE06B
:100CC000BB88042B47D83F4C3F4D9B002670667075
:100CD0005B191B780226334200D180E022707EE04F
:100CE000BA887F231340042B35DC7E88002E32D156
:100CF00035499B005B181A7802218A4329E0BA889B
:100D00007F231340042B26DC7E88002E23D12E4A1D
:100D10009B009B181A7802210A431AE07A88B98846
:100D20002A4B5C68002C16D01888904209D158884C
:100D3000884206D1120A032A01D126784FE01E8983
:100D40004DE00C33EDE7224B1A68224B1A60BA785B
:100D5000214B1A7042E01C4B0F221A7063E0C04610
:100D600080200740E30A00206D0A0020750C002057
:100D70009020074000F8FF1FC8004000D00A002064
:100D8000E40A0020040A002081060000020300009B
:100D90002120000021220000212300005C0A002005
:100DA000080A0020B00A0020C00A00202C0D0020F4
:100DB000180A0020DA0A002030C80110646600001A
:100DC00088004000DB0A0020C02007406866000061
:100DD0007C0B00203C0D0020840C0020341CFB8880
:100DE0009E4200D91E1C371E402F00D94027201CD0
:100DF000391CFFF787FDE419F61B03D1351C402F82
:100E000004D010E04025B54200D9351C201C291C17
:100E1000FFF778FD6419761B01D1402D03D1754D84
:100E2000754B2C601E800122744B3AE0744B19887C
:100E3000744B994210D10023D05C7349C8540133DC
:100E4000072BF9D10B68862B02D1704B0F221A7039
:100E50000020011CFFF756FD6D4B2B6022E0654F13
:100E60003D68002D13D064490E88341E402C00D9F3
:100E70004024281C211CFFF745FD361B5E4AB6B2F4
:100E80001680002E01D1402C00D12E193E605C4B03
:100E9000A0221988D200914204D100225A709A7877
:100EA0005C4B1A700122554B61E0D200A4186068B7
:100EB000013E0838F6B22B4036D001F09FFB564970
:100EC000B0004258554B002A1BD055684550111CA4
:100ED000985D0831616003280BD803F061F80204C3
:100EE0000608032104E0022102E0052100E00421BC
:100EF00099558823270700D5C82312881204134365
:100F00003CE0985D032808D803F04AF83939020418
:100F1000002200E001229A5531E02C4062426241F9
:100F20000324A41A9C552AE062880280002A20D05B
:100F30003B4D43804360B3005F593A49002F01D1D4
:100F4000585101E0CD586860C850374B7600F15ACF
:100F50005218F25201F034FB002804D008306060CF
:100F600021070AD507E0314B20601A7801321A7048
:100F700005E02C4201D0264B00E02D4B23602D4A8A
:100F80000823137081E5012004421ED01B4902236F
:100F90000B70294B264C1A70284B294D1C609C6005
:100FA000284C1A61DC609A615D60274B0D241C702F
:100FB000264CFF232370174C33702270244A137081
:100FC000244B9F221A70087013E063B2002B04DADE
:100FD0001D4B0D221A708023337002231C4204D053
:100FE0001A4A1178C9B21170337010231C4200D014
:100FF0003370F7BD040A0020D80A0020942007406F
:10100000D00A002021200000340D00206D0A0020AD
:10101000C800400098200740B00A0020180A0020AD
:101020005C0A0020080A00202C0D0020DA0A0020AB
:1010300088004000802007406C0A002000F8FF1F55
:101040001C0A0020700A0020C020074088200740AA
:101050008C2007408420074010B501F077FA002269
:101060001A4B0021D150981808324160882AF7D1D4
:10107000174A80201468C00220431060180A154ADD
:10108000C0B21070180C144AC0B21070134A1B0E74
:101090001370134AFF231370124A13481370134A34
:1010A0001370012202701248017012490A70124A2C
:1010B000116899430B1C70210B4313600F4B802266
:1010C00052041A600E4B10221A7010BD00F8FF1F58
:1010D000348004409C200740B0200740B4200740E3
:1010E00080200740882007409420074010200740B8
:1010F000002107408420074018E400E000E100E000
:1011000008210740264B80221968D2000A431A6042
:10111000244A00231370244A1370244A1370244A6B
:101120001370244A1370244B1B78032B09D0152B02
:1011300004D0002B08D1214A214B04E01F4A214B47
:1011400001E0214A214B1A60214B1B78042B0BD064
:10115000052B05D0012B0BD1D12292001D4B06E0AF
:10116000D12292001C4B02E091221C4B92001A608B
:101170001B4BC204D20E1A70C0B2002258709A7073
:101180002C22DA70174BFF22196891430A1C402168
:101190000A431A60144B802252011A607047C046FD
:1011A00034800440710B0020ED0A0020780B0020F1
:1011B000720B0020EC0A00202E0B0020130300000D
:1011C00040A0044018C004401302000004900440F2
:1011D00064FDFF1F44A004401CC00440089004406C
:1011E00000A006400CE400E000E100E010B5174B61
:1011F000132299789143032202400A43410701D503
:1012000010210A439A700F2210490240042A03D188
:101210008A79402422438A715A7910218A430842EC
:1012200000D00A435A71997910229143840600D55F
:101230001143064A9971C10506D5537811782020CB
:10124000DBB201431170537010BDC04600A00640D0
:1012500008B5124B1B685A051ED5114B1B78DBB223
:10126000002B02D001F0E4FDF7E70E4A802149018E
:1012700011600D4A0D49D3700422FF320A600C49F7
:101280000A600C4A13700C4A13700C4B1B68002B3D
:1012900002D00B4A12781A7108BDC046348004404F
:1012A000EC0A002080E100E000A0064040A00440DD
:1012B00044A00440710B0020ED0A0020E80A002041
:1012C0002F0B002038B5041C0B4B1D78EDB2002D00
:1012D000FAD1201C012100F0BDFA291C201C00F0CD
:1012E00099FA0C225443054B054AE1581C19116028
:1012F000044B227A1A7038BDEC0A002020650000E9
:10130000740B0020700B002030B5002901D0802321
:101310001843224A1378141C98423ED0204A12687F
:10132000550539D57F221340042B0FD004D8012B4B
:101330000FD100221B4B0BE0052B04D0182B08D13A
:101340000022194B04E00022184B01E0184B002248
:101350001A604423002900D060237F220240042A1F
:1013600015D006D8012A17D1C022920013430D4A86
:1013700011E0052A06D0182A0ED18022D20013438C
:10138000094A08E0C02292001343084A03E0802281
:1013900092001343064A1360207030BD64FDFF1FA6
:1013A0003480044044A0044050D004401CC0044099
:1013B0000890044010B51A4A137898422ED0194963
:1013C00009684C0529D5032B0FD004D8002B0FD169
:1013D00015490B600CE0152B04D0192B08D1002106
:1013E000124B04E00021124B01E0124B0021196066
:1013F00003280FD004D800280FD10F490A4B0BE067
:10140000152804D0192808D10C49084B04E00A49D2
:10141000074B01E00A49074B1960107010BDC04628
:101420002E0B00203480044040A0044054D00440DF
:1014300018C004400490044013030000130400008B
:101440001302000038B50E4B1A680023510514D55D
:101450000C4C1A2810D80C2343430B4A0B4D9958B7
:10146000D3181B7A216001212B7000F0F3F9236857
:101470002A781A72012300E02360181C38BDC04688
:1014800034800440E80A0020206500002F0B002073
:1014900000207047F8B5214B071C1B685A053BD547
:1014A0001F4B1B68002B02D01E4A12781A711E4E69
:1014B000002334783F220134A2425B415B421C404E
:1014C0001A4D2B78A3421CD100F0C4FD402813DC38
:1014D000174A13795BB2002BF2DA2B780021013323
:1014E0003F209842494149420B401249C95CDBB256
:1014F000C9B2D1712B70E3E7FF28E1DD01F098FC60
:10150000DEE70C4BFFB21F550B4B01221A70084B44
:10151000E4B2AC223470DA70F8BDC04634800440C6
:10152000740B0020700B0020780B0020720B002041
:1015300000A00640EE0A0020EC0A002038B5041C8A
:101540004518AC4204D02078FFF7A4FF0134F8E737
:1015500038BDFFFF08B5044B1B78002B02D001F00B
:1015600067FCF8E708BDC046EC0A0020064B074AB6
:101570001B781078DBB2C0B2834201D33F3000E069
:101580000138C01A7047C046780B0020720B00204B
:10159000054B1878054BC0B21B78DBB2984200D2DD
:1015A0004030C01A7047C046710B0020ED0A002081
:1015B00010B5124B12491A780B78D2B2DBB29A42AC
:1015C00019D001333F2400209C4240414042034057
:1015D0000C48DCB2C05C0C700B49C0B20968002931
:1015E0000BD09A4200D24032D31A1A2B05DC074B9B
:1015F0001B780B7201E00120404210BD710B0020EE
:10160000ED0A0020300B0020E80A00202F0B0020FC
:101610000A4B1A780A4B1B78DBB29A420AD0013384
:1016200000223F219942524152421340054AD05C68
:10163000C0B201E0012040427047C046710B00205B
:10164000ED0A0020300B0020064B1A78064BD2B270
:101650001A70064B1B68002B02D0054A12781A72CA
:101660007047C046ED0A0020710B0020E80A0020F8
:101670002F0B002030B5254A1379990612D524493D
:10168000D4790B78002001333F259D4240414042F0
:1016900003402048E4B20078834203D01E48C4547B
:1016A000DBB20B70D178194CC9B24BB2002B1ADAED
:1016B00023795BB2002B16DA184B19481D78037892
:1016C000DBB29D4202D16C23E3700CE001330024B5
:1016D0003F259D42644164422340124CE45CDBB2EE
:1016E000E4B2D4710370402319420ED0117919422B
:1016F0000BD00D4B002119700C4B1B688B4202D094
:101700000B49097819722C23D37030BD00A0064014
:10171000710B0020ED0A0020300B0020780B002018
:10172000720B0020EE0A0020EC0A0020740B00204F
:10173000700B00201B4B1C4A19781C4B082901D147
:10174000002102E00A2903D138211160132206E0AA
:101750000C2901D1342100E03C21116012221A60D1
:10176000134B1A78134B002A01D0002200E001220B
:101770001A60114B1A78114B012A01D880220CE013
:10178000042A01D8842208E0082A01D8852204E02E
:10179000102A01D8862200E087221A60084B012215
:1017A0001A70704765FDFF1F08B003400CB003407E
:1017B0007A0B002020B0034066FDFF1F24B00340D9
:1017C000790B0020F8B5061C0D1C171C0024301CDA
:1017D000391C02F03DFC092901D8303100E03731D5
:1017E000C9B22955301C391C02F0EEFB061E01D08F
:1017F0000134ECE72B1958702B1C5A1BA24206DA55
:101800001A78295D19702A550133013CF5E7281C27
:10181000F8BDFFFF10B51A2818D80C2358430C4AFE
:10182000835810181C7D027A224205D0002901D06D
:101830001A710BE01A7209E043681A68002902D095
:1018400003210A4301E002218A431A6010BDC04609
:1018500020650000F0B51A283DD80C273D1C4543F3
:101860001D4A54196368161C012901D0042912D19C
:10187000784332583018147D007A20431075A22224
:1018800052001A602022042901D1196814E0196855
:1018900091430A1C1EE0AA58247A107DA0431075BB
:1018A000002902D08A1E012A12D8802252001A6012
:1018B000022903D11A6803210A430BE003290AD144
:1018C0001A6802210A431A601A6801218A4301E05A
:1018D0000422FF321A60F0BD2065000072B60C4B86
:1018E0000C491A680C4B1B68096862B6480104D59C
:1018F00032219142894149425B18FA2080004343DA
:101900000648821A06484243920D98187047C0460E
:1019100018E000E004ED00E07C0B00207FBB00003D
:101920005555010038B5041CFFF7D8FF051C002CE5
:101930000FD0FFF7D3FF074B401B984206D9013C5D
:10194000002C06D0FA239B00ED18F2E701F070FAA4
:10195000EFE738BDE70300001D4B8022D20510B52C
:101960001A60802212061A601A4B002018601A4969
:101970001A4B1B4A1960282313601A4A1A4C136029
:101980001A4A13601A4A13601A4A13601A4A1360FB
:1019900009222260194C2060194C2160194C2360E7
:1019A000194C2360194C2260194C206019480160C1
:1019B00019490B6019490B60194B1A60FFF7BAFE01
:1019C000C8204000FFF7AEFFFFF746FB10BDC04642
:1019D00000E100E004800340FFBF000008800340F6
:1019E0000C80034014800340008003401C800340AF
:1019F000248003402C800340348003400490034043
:101A0000089003400C900340149003400090034062
:101A100004A0034008A003400CA0034014A003400E
:101A200000A00340204B8022196852010A431A602B
:101A30001E4A002313701E4A13701E4A13701E4A5A
:101A400013701E4A13701E4B1B78062B04D0072BF5
:101A500005D11C4A1C4B01E01A4A1C4B1A601C4B56
:101A60001B78082B05D0142B07D1D1229200194BDB
:101A700002E0D122184B92001A60184BC204D20E19
:101A80001A70C0B2002258709A702C22DA70144B6F
:101A9000144A19680A408021C9030A431A60124B8C
:101AA0008022D2011A60704734800440F00B00207D
:101AB000850B0020F80B0020F10B0020840B002088
:101AC00067FDFF1F1303000008C0044010C004405E
:101AD00068FDFF1F14C004400CC0044000C0064055
:101AE0000CE400E0FFFF00FF00E100E010B5174B41
:101AF000132299789143032202400A43410701D5FA
:101B000010210A439A700F2210490240042A03D17F
:101B10008A79402422438A715A7910218A430842E3
:101B200000D00A435A71997910229143840600D556
:101B30001143064A9971C10506D5537811782020C2
:101B4000DBB201431170537010BDC04600C00640A7
:101B500008B5124B1B68DA041ED5114B1B78DBB29B
:101B6000002B02D001F064F9F7E70E4A8021C90189
:101B700011600D4A0D49D3700422FF320A600C49EE
:101B80000A600C4A13700C4A13700C4B1B68002B34
:101B900002D00B4A12781A7108BDC0463480044046
:101BA000840B002080E100E000C0064008C0044033
:101BB0000CC00440F00B0020850B0020800B00209F
:101BC000AE0B002038B5041C0B4B1D78EDB2002D78
:101BD000FAD1201C0121FFF73DFE291C201CFFF734
:101BE00019FE0C225443054B054AE1581C1911609B
:101BF000044B227A1A7038BD840B00202065000047
:101C0000F40B0020EF0B002030B5002901D0802319
:101C10001843154A1378141C984224D0134A1268AA
:101C2000D5041FD57F221340082B04D0142B05D1D7
:101C300000220F4B01E00F4B00221A6044230029C1
:101C400000D060237F220240082A06D0142A09D13E
:101C5000C02292001343064A03E0C02292001343BD
:101C6000044A1360207030BD68FDFF1F34800440BB
:101C700014C004400CC0044010B50F4A13789842B9
:101C800018D00E490968CC0413D5062B04D0072BB5
:101C900005D100210A4B01E00A4B002119600628FA
:101CA00004D0072805D10849054B01E00649054B3A
:101CB0001960107010BDC04667FDFF1F34800440DE
:101CC00008C0044010C004401303000038B50E4B98
:101CD0001A680023D10414D50C4C1A2810D80C23F0
:101CE00043430B4A0B4D9958D3181B7A21600121AD
:101CF0002B70FFF7AFFD23682A781A72012300E0EA
:101D00002360181C38BDC04634800440800B00207E
:101D100020650000AE0B002000207047F8B5214B75
:101D2000071C1B68DA043BD51F4B1B68002B02D035
:101D30001E4A12781A711E4E00233478272201346D
:101D4000A2425B415B421C401A4D2B78A3421CD13E
:101D500000F080F9402813DC174A13795BB2002B9E
:101D6000F2DA2B7800210133272098424941494279
:101D70000B401249C95CDBB2C9B2D1712B70E3E7E9
:101D8000FF28E1DD01F054F8DEE70C4BFFB21F55F0
:101D90000B4B01221A70084BE4B2AC223470DA709B
:101DA000F8BDC04634800440F40B0020EF0B002047
:101DB000F80B0020F10B002000C00640860B00202D
:101DC000840B002038B5041C4518AC4204D02078A0
:101DD000FFF7A4FF0134F8E738BDFFFF08B5044B57
:101DE0001B78002B02D001F023F8F8E708BDC046AD
:101DF000840B0020064B074A1B781078DBB2C0B278
:101E0000834201D3273000E00138C01A7047C04632
:101E1000F80B0020F10B0020054B1878054BC0B2E1
:101E20001B78DBB2984200D24030C01A7047C046DF
:101E3000F00B0020850B002010B5124B12491A78C8
:101E40000B78D2B2DBB29A4219D001333F24002082
:101E50009C424041404203400C48DCB2C05C0C70E4
:101E60000B49C0B2096800290BD09A4200D2403217
:101E7000D31A1A2B05DC074B1B780B7201E00120EB
:101E8000404210BDF00B0020850B0020AF0B00205E
:101E9000800B0020AE0B00200A4B1A780A4B1B78EF
:101EA000DBB29A420AD0013300223F2199425241CB
:101EB00052421340054AD05CC0B201E001204042CA
:101EC0007047C046F00B0020850B0020AF0B0020B0
:101ED000064B1A78064BD2B21A70064B1B68002BC1
:101EE00002D0054A12781A727047C046850B00204E
:101EF000F00B0020800B0020AE0B002030B52E4AE6
:101F00001379990624D52D49D4790B780020013313
:101F10003F259D424041404203402948E4B20078B9
:101F2000834203D02748C454D8B2087026490868B1
:101F300000280DD025490978C9B28B4201D35B1A1C
:101F400001E05B1A4033272B02DD214B1B78037124
:101F5000D178194CC9B24BB2002B1ADA23795BB293
:101F6000002B16DA1B4B19481D780378DBB29D4213
:101F700002D16C23E3700CE00133002427259D423D
:101F8000644164422340144CE45CDBB2E4B2D4719B
:101F90000370402319420ED0117919420BD00F4B18
:101FA000002119700E4B1B688B4202D00D49097835
:101FB00019722C23D37030BD00C00640F00B0020F6
:101FC000850B0020AF0B0020800B0020F10B0020C0
:101FD000AE0B0020F80B0020860B0020840B0020A5
:101FE000F40B0020EF0B0020024B1A6801321A603C
:101FF0007047C0467C0B002010B50B4C23685A0379
:1020000001D5FEF741FD23685A0501D5FFF732FBE4
:1020100023681A0501D500F039FA2368DA04ECD5F3
:10202000FFF76CFFE9E7C0463480044008B5FFF7CE
:10203000E3FFFFFF014B00221A607047008104405C
:102040007047FFFF024A136818181060181C704789
:102050006CFDFF1FEFF31380002821D1EFF31082F6
:10206000002A1FD1EFF30583002B0FD0101C0F2B7C
:102070000ED91A1C103A92080B4903209200034013
:10208000521883401068D840C0B201E08020400060
:10209000EFF31182002A05D0824203D2101C01E026
:1020A000012040427047C04600E400E0164B802209
:1020B000196812010A431A60144A00231370144A63
:1020C00014491370144A1370144A1370144A13708D
:1020D000144A1160144AD12189001160134AC104C5
:1020E000C90EC0B21170507093702C23D370104B76
:1020F000104A19680A408021C9010A431A600E4B30
:10210000802292011A607047348004406C0C0020D9
:10211000010C002013030000740C00206D0C002043
:10212000000C00200CB0044010B0044000B0064089
:102130000CE400E0FF00FFFF00E100E010B5174BEA
:10214000132299789143032202400A43410701D5A3
:1021500010210A439A700F2210490240042A03D129
:102160008A79402422438A715A7910218A4308428D
:1021700000D00A435A71997910229143840600D500
:102180001143064A9971C10506D55378117820206C
:10219000DBB201431170537010BDC04600B0064061
:1021A00008B5124B1B681A051ED5114B1B78DBB204
:1021B000002B02D000F03CFEF7E70E4A8021890197
:1021C00011600D4A0D49D3700422FF320A600C4998
:1021D0000A600C4A13700C4A13700C4B1B68002BDE
:1021E00002D00B4A12781A7108BDC04634800440F0
:1021F000000C002080E100E000B006400CB004407C
:1022000010B004406C0C0020010C0020FC0B0020DE
:102210002A0C002038B5041C0B4B1D78EDB2002DA4
:10222000FAD1201C0121FFF715FB291C201CFFF708
:10223000F1FA0C225443054B054AE1581C19116070
:10224000044B227A1A7038BD000C00202065000073
:10225000700C00206B0C00207047704738B50E4B97
:102260001A680023110514D50C4C1A2810D80C2319
:1022700043430B4A0B4D9958D3181B7A2160012117
:102280002B70FFF7E7FA23682A781A72012300E01F
:102290002360181C38BDC04634800440FC0B00206D
:1022A000206500002A0C002000207047F8B5214B63
:1022B000071C1B681A053BD51F4B1B68002B02D05F
:1022C0001E4A12781A711E4E0023347827220134D8
:1022D000A2425B415B421C401A4D2B78A3421CD1A9
:1022E000FFF7B8FE402813DC174A13795BB2002BC6
:1022F000F2DA2B78002101332720984249414942E4
:102300000B401249C95CDBB2C9B2D1712B70E3E753
:10231000FF28E1DD00F08CFDDEE70C4BFFB21F551E
:102320000B4B01221A70084BE4B2AC223470DA7005
:10233000F8BDC04634800440700C00206B0C0020B7
:10234000740C00206D0C002000B00640020C002030
:10235000000C002038B5041C4518AC4204D020788D
:10236000FFF7A4FF0134F8E738BDFFFF08B5044BC1
:102370001B78002B02D000F05BFDF8E708BDC046DB
:10238000000C0020064B074A1B781078DBB2C0B265
:10239000834201D3273000E00138C01A7047C0469D
:1023A000740C00206D0C0020054B1878054BC0B252
:1023B0001B78DBB2984200D24030C01A7047C0464A
:1023C0006C0C0020010C002010B5124B12491A7839
:1023D0000B78D2B2DBB29A4219D001333F240020ED
:1023E0009C424041404203400C48DCB2C05C0C704F
:1023F0000B49C0B2096800290BD09A4200D2403282
:10240000D31A1A2B05DC074B1B780B7201E0012055
:10241000404210BD6C0C0020010C00202B0C002051
:10242000FC0B00202A0C00200A4B1A780A4B1B7860
:10243000DBB29A420AD0013300223F219942524135
:1024400052421340054AD05CC0B201E00120404234
:102450007047C0466C0C0020010C00202B0C0020A3
:10246000064B1A78064BD2B21A70064B1B68002B2B
:1024700002D0054A12781A727047C046010C00203B
:102480006C0C0020FC0B00202A0C002030B5254AE3
:102490001379990612D52449D4790B780020013399
:1024A0003F259D424041404203402048E4B200782D
:1024B000834203D01E48C454DBB20B70D178194C50
:1024C000C9B24BB2002B1ADA23795BB2002B16DAB1
:1024D000184B19481D780378DBB29D4202D16C235A
:1024E000E3700CE00133002427259D4264416442DF
:1024F0002340124CE45CDBB2E4B2D471037040239D
:1025000019420ED0117919420BD00D4B00211970D0
:102510000C4B1B688B4202D00B49097819722C2393
:10252000D37030BD00B006406C0C0020010C0020C0
:102530002B0C0020740C00206D0C0020020C0020DD
:10254000000C0020700C00206B0C00201FB572B630
:10255000154B70221A70154A41211170144A0F212F
:10256000117080221A701A7852B2002AFBDA114BCD
:10257000186862B6104B984201D80A23584301AC40
:10258000211C0A22FFF71EF90023E15C0B4A0029F7
:1025900005D058001018013341800A2BF5D10133C2
:1025A0005B0013701FBDC0460000024007000240E0
:1025B00006000240080002407F969800F8FDFF1FC9
:1025C00038B572B60B4C2568281C01F0E7FD0B28C6
:1025D00002D962B600200CE080231B06C3409D4355
:1025E000256062B648235843034B18180023036044
:1025F000436038BD10FEFF1F00FAFF1F10B5041C1A
:102600000E484821201A01F0DFFC0B2815D80C4B8E
:102610001B78002B07D00B4B1B78002B03D0201C02
:10262000FEF7BAF909E072B68022074B1206C240E3
:10263000101C1A681043186062B610BD00FAFF1F24
:10264000DA0A0020E30A002010FEFF1F38B5114C03
:102650002368002B0CD020684288531C8218157AFE
:102660000288934212D3FFF7C9FF002323600EE0D4
:10267000094B1B78002B02D10120404208E00320C7
:10268000FEF75EF920600028E5D1F5E74380281CBD
:1026900038BDC046800C0020E30A002010B50D4C68
:1026A0002368002B03D02368002B0ED103E00A4BD4
:1026B0001B78002B02D10120404209E00320FEF7E5
:1026C0003FF920600028EED1F5E75A889B18187A68
:1026D00010BDC046800C0020E30A0020054B9888FE
:1026E000054B1B68002B03D01A885B88D31AC018CF
:1026F0007047C0462C0D0020800C002010B50A4BFE
:102700001B78002B0FD0094C2068002803D0FFF75E
:1027100075FF002323600320FEF712F9002802D082
:10272000FFF76CFFF7E710BDE30A0020800C0020E4
:10273000F7B5304D0123071C0C1C2B70002C56D014
:102740002D4E3068002827D12C4A01922C4B1B7843
:10275000DBB2002B03D12B700120404249E0042062
:10276000FEF708F9072808D801232B70FFF728FF88
:10277000214B186000280FD128700198214B013897
:102780000190002802D01A78002A02D001221A7083
:10279000E2E700F04DFBD9E71A4B002231681A70CE
:1027A0004B884020C01A0094844200D90090181C25
:1027B000009A08309B1808184B800190A41A002337
:1027C0000098834204D0F85C019AD0540133F7E7B3
:1027D000FF184B883F2B06D940230B800420FEF7BF
:1027E00015F900233360084B05221A70A6E72C70F8
:1027F000201CFEBD760C0020780C0020097500001E
:10280000E30A00207C0C0020750C002007B56B4605
:10281000D8710733181C0121FFF78AFF0EBDFFFF97
:10282000F8B5124B1B78002B1ED0114F114B3C6892
:1028300001261E70104D002C09D000262E706388D2
:1028400004202380211CFEF7E1F83E6009E0FFF739
:10285000B7FE011E04D004202C70FEF7D7F800E06C
:102860002E70044A00231370F8BDC046E30A00200E
:10287000780C0020760C0020750C002038B50E4B2B
:102880001D78EDB2002D15D10C4C2168002906D021
:102890004B8804200B80FEF7B9F825600AE0FFF7AB
:1028A0008FFE011E03D00420FEF7B0F802E0044BB7
:1028B00001221A7038BDC046760C0020780C00202A
:1028C000750C002070B5061C0D1C002433191979F5
:1028D000281C0022013400F06FF9042C05D02B686D
:1028E000281C1B682E219847F0E7201C70BDFFFFB5
:1028F000034A044B08321A6000225A607047C046EF
:10290000C0660000880C002008B50368C9B21B68C7
:10291000984708BD08B50368C9B21B68984708BD49
:1029200008B50368C9B21B68984708BD08B50368B5
:10293000C9B21B68984708BD08B50368C9B21B68CF
:10294000984708BD08B50368C9B21B68984708BD19
:1029500008B50368C9B21B68984708BD08B5036885
:10296000C9B21B68984708BD08B5044B4808C01891
:1029700001F02AFBFEF7C6FB08BDC046C0C62D000D
:1029800010B5064B4808C018141C01F01DFBFEF7DB
:10299000B9FB201CFEF72AFC10BDC046C0C62D00A6
:1029A00008B5FEF755FC08BD08B5081CFEF78AFC03
:1029B00008BD08B5081CFEF7FDFC08BD08B5081CDD
:1029C000111CFEF7A1FC08BD08B5081CFEF73AFD76
:1029D000431E9841C0B208BD08B5081CFEF758FD5B
:1029E000431E9841C0B208BD08B5FEF7D1FD08BD31
:1029F00008B5FEF70DFE08BD08B5FEF7D9FD08BD08
:102A000008B5FEF7A7FD08BD08B5FEF71DFE08BD19
:102A100008B5FEF7ABFD08BD08B5081CFEF73AFD8A
:102A2000012008BD08B5081CFEF734FD012008BDD3
:102A300010B5081C141C111CFEF780FD201C10BDD5
:102A400038B5081C0D1C03F0BFFB041C211C281CFE
:102A5000FEF774FD201C38BD08B5044B4808C018AB
:102A600001F0B2FAFEF7DEFF08BDC04660E31600D3
:102A700010B5064B4808C018141C01F0A5FAFEF763
:102A8000D1FF201CFFF732F810BDC04660E31600EE
:102A900008B5FFF75DF808BD08B5081CFFF792F808
:102AA00008BD08B5081CFFF7E7F808BD08B5081C05
:102AB000111CFFF7A9F808BD08B5081CFFF706F9B7
:102AC000431E9841C0B208BD08B5081CFFF724F9A1
:102AD000431E9841C0B208BD08B5FFF79DF908BD77
:102AE00008B5FFF7D9F908BD08B5FFF7A5F908BD86
:102AF00008B5FFF773F908BD08B5FFF7E9F908BD98
:102B000008B5FFF777F908BD08B5081CFFF706F907
:102B1000012008BD08B5081CFFF700F9012008BD19
:102B200010B5081C141C111CFFF74CF9201C10BD1B
:102B300038B5081C0D1C03F047FB041C211C281C85
:102B4000FFF740F9201C38BD7047FFFF044B0022FF
:102B50001A711A73FA21034A890099601A60704742
:102B6000900C0020D866000010B5041C00F0D0F9CD
:102B7000201C10BD08B505480023037004498023BC
:102B8000044A437303F03EF808BDC046A00C002081
:102B9000692B000060FDFF1F7047FFFF044B002200
:102BA0001A711A73FA21034A890099601A607047F2
:102BB000B40C002038670000F0B585B06B460E33CA
:102BC0008EB2144C0D0C013666436C43A5B2370C23
:102BD000AE19F619250C2C19360CA5196D080A2604
:102BE0006E43891B30311C1C1970013B002D01D034
:102BF000291CE5E7211C002A03D01C1C2D224B1E9A
:102C00001A70036804A9E24352185B68211C9847B4
:102C100005B0F0BD3333000008B5FFF75FFD08BD18
:102C200008B5FFF713FD08BD08B5FFF737FD08BD70
:102C300008B5FFF7F5FD08BD08B5FFF75FFD08BD56
:102C400008B5081CFFF7E2FD08BD08B5081C111CFB
:102C5000FFF76EFD08BD7047044B00221A711A730E
:102C6000FA21034A890099601A607047C40C002059
:102C70009867000008B50368C9B21B68984708BD8B
:102C800008B50368C9B21B68984708BD08B5036852
:102C9000C9B21B68984708BD08B50368C9B21B686C
:102CA000984708BD08B5044B4808C01801F08CF9D6
:102CB000FFF7FCF908BDC04660E3160010B5064BEF
:102CC0004808C018141C01F07FF9FFF7EFF9201C29
:102CD000FFF734FA10BDC04660E3160008B5FFF7F1
:102CE0005FFA08BD08B5081CFFF794FA08BD08B5DF
:102CF000081CFFF7B2FA08BD08B5081C111CFFF745
:102D0000ABFA08BD08B5081CFFF7A8FA431E9841A6
:102D1000C0B208BD08B5081CFFF7C6FA431E9841AB
:102D2000C0B208BD08B5FFF73FFB08BD08B5FFF707
:102D30007BFB08BD08B5FFF747FB08BD08B5FFF7EB
:102D400015FB08BD08B5FFF78BFB08BD08B5FFF7FD
:102D500019FB08BD08B5081CFFF7A8FA012008BD3B
:102D600008B5081CFFF7A2FA012008BD10B5081C21
:102D7000141C111CFFF7EEFA201C10BD38B5081CFE
:102D80000D1C03F021FA041C211C281CFFF7E2FA99
:102D9000201C38BD7047FFFF044B00221A711A73C4
:102DA000FA21034A890099601A607047D40C002008
:102DB000C0670000F8B5184B8022196852040A4316
:102DC0001A60164B01211A68154D0A431A60154BFB
:102DD0002E681C68002C12D0237A002B0DD023689B
:102DE000201C1B682F6898472A68E188D21B1209AB
:102DF00093B2A3808A4200D9E3806469EAE7296834
:102E0000094B891B09098AB21A80084B188881422C
:102E100000D91A80F8BDC046FCED00E0001000E0CB
:102E2000041000E0E40C0020EA0C0020E80C002074
:102E300010B5104C2378002B1BD101232370FFF712
:102E40004DFC002801D0FFF706FFFEF7A1FB00288C
:102E500001D0FFF7A1FEFFF7A7FA002801D0FFF786
:102E600099FFFEF7D9FF002801D0FFF76DFE002380
:102E7000237010BDEC0C002008B50B4B1A68002A1B
:102E800004D001221A60094B1B689847084B1B7835
:102E9000002B08D0074B1A68002A04D001221A60C0
:102EA000024B5B68984708BD0C710340F00C002092
:102EB000EF0C00201C710340054B01221A60054BEA
:102EC000054A19680A401A60044B00221A707047BC
:102ED000007003403C800440FFFF7FFFEF0C0020A8
:102EE00008B5836800221A608021074BC903196066
:102EF0004178064B5A541A78002A04D15B78002B8B
:102F000001D1FFF7D9FF08BD80E100E0ED0C002002
:102F1000037810B5041C002B01D0FFF7E1FF00235C
:102F2000237010BD08B543001B0E7F3B162B0DDC34
:102F3000002B0FDB094A1A41131C024206D0021C67
:102F40009A430A60111C01F0D9FD02E00860C00F2D
:102F5000C00708BDC30FDB070B60FAE7FFFF7F0068
:102F600000B51D4A430083B0011C5B08934219DD84
:102F70001A4A934203DD01F0C1FD03B000BD69466A
:102F800000F014F903231840012819D002280ED0AC
:102F900000281AD00098019900F084FA80231B06BB
:102FA000C018EAE70021002200F0A4FEE5E700983F
:102FB0000199012200F09EFE80231B06C018DCE769
:102FC0000199009800F06EFAD7E700980199012264
:102FD00000F090FED1E7C046D80F493FFFFF7F7F4A
:102FE000F0B58BB0041C0E1C00F05AF82A4F0023D9
:102FF000FB56051C013304D0301C00F047FF0028AD
:1030000002D1281C0BB0F0BD201C00F03FFF0028AF
:10301000F7D0301C002101F093F80028F1D00123F3
:1030200000931E4B201C01930023089302F00CFD1B
:10303000041C0D1C301C0294039502F005FD3E7823
:1030400004900591002E16D012491148021C0B1C49
:1030500001F046FF06900791022E0ED102F0E4FD2A
:1030600021230360089B002B0DD10698079902F0DD
:103070003DFD051CC5E706940795684600F0B4FEC3
:103080000028EFD1EAE702F0CFFD089B0360ECE7F0
:10309000000000000000000014FEFF1F1868000080
:1030A000F8B54B005B083FD0C70FFF073B4A3E1CFB
:1030B0004640964238DCFF22D205934234DC9E42E1
:1030C00037DB3CD0364A96423EDC7E223402524206
:1030D000002C03DD013A6400002CFBDC3048834205
:1030E00041DC7E251C026D42002C02DB013D6400A8
:1030F000FCD5101C7E3030DB76028024760A240456
:103100003443281C7E3022DB4902480A802109040E
:103110000143521B002A0DD0631A6400002B01DB0F
:103120000DD05C00013AF5E701F0BEFB011C01F097
:10313000D7F9F8BD611A00D5211C002916D1FF0F5F
:10314000184BBF00F858F4E7F2157F3AC6E77E2126
:103150004942491B8B40191CDBE77E246442A41AB8
:10316000A640341CCDE7DD157F3DC2E70C4B9942EC
:1031700003DC4900013D9942FBDD2B1C7E3306DB5D
:10318000094B7F35C8183843ED052843D1E77E2029
:103190004042401B0141081C3843CAE7FFFF7F7FC4
:1031A000FFFF7F0020680000000080FFF0B556465A
:1031B0004D4644465F46F0B442005608AB4A89B0DB
:1031C000031C0C1C051C964268DDA94A96421ADCB9
:1031D000A849002B00DCFEE001F090FC0F23321C1C
:1031E0009A43A54B051C9A426AD0A44901F086FC7B
:1031F000011C2060281C01F081FCA04901F07EFC2C
:10320000606001204EE09E4A96426BDD9D4A9642E8
:103210004FDCF715863FFB05F61A301C01F0E4FD84
:1032200001F002FE011C0590301C01F067FC8721B3
:10323000C90501F039FB804601F0D6FD01F0F4FD2F
:10324000061C0690311C404601F058FC8721C90538
:1032500001F02AFB0021079000F072FF002800D146
:10326000D3E0301C002100F06BFF431E9841022385
:103270001B1A02220092844A05A80192211C3A1CC2
:1032800000F0D8F9002D0DDA2268802109065318C4
:103290006268236053186360404203E000232060AB
:1032A0004B60002009B03CBC90469946A246AB4614
:1032B000F0BD191C01F022FC606020600020F1E7E5
:1032C000724901F01BFC7249051C01F017FC011C3E
:1032D0002060281C01F012FC6D4901F00FFC6060B9
:1032E0000120DFE700F082FD6A49804601F0DCFA48
:1032F000FC21890500F088FF01F076FD071C01F034
:1033000093FD5C49814601F0CFFA011C404601F073
:10331000F5FB5A498046484601F0C6FA82464046C7
:103320001F2F22DCFF23321C9A43791E5A4B89003F
:10333000CB589A4219D0514601F0E0FB83462060F9
:103340005946404601F0DAFB514601F0D7FB031C19
:103350006060381C002DA5DA802109060E1C5E4431
:103360005B182660636078429CE7514601F0C6FB1B
:10337000FF22C30DF615134083460296F31A082B5D
:1033800041DD4249484601F08FFA061C311C404697
:1033900001F0B4FB03900399404601F0AFFB311CF0
:1033A00001F0ACFB3A49061C484601F07DFA311C9D
:1033B00001F0A4FB82465146039801F09FFBFF22D7
:1033C000C30D029913408346CB1A192B32DC039BA1
:1033D00020609846B4E700F017FF0F23321C9A4391
:1033E000254B051C9A4212D0244900F00DFF011C08
:1033F0002060281C01F082FB204900F005FF60607E
:10340000012040424EE720609AE7032331E71F493D
:1034100000F0FAFE1E49051C00F0F6FE011C2060BB
:10342000281C01F06BFB1A4900F0EEFE60600120E1
:10343000404237E71949484601F036FA061C311C6C
:10344000039801F05BFB80464146039801F056FB70
:10345000311C01F053FB1249061C484601F024FAC6
:10346000311C01F04BFB8246404664E7D80F493FD0
:10347000E3CB1640800FC93FD00FC93F43443537D7
:10348000800F4943FFFF7F7FA86800000044353765
:1034900008A3852E84F9223F2868000000A3852E0A
:1034A00032318D24F8B54F464646574BC0B44600DE
:1034B000051C0F1C76089E4248DC01F095FC002894
:1034C00000D19EE0291C281C01F0EEF94F49041C94
:1034D00001F0EAF94E4900F097FE211C01F0E4F9F1
:1034E0004C4901F00BFB211C01F0DEF94A4900F0C8
:1034F0008BFE211C01F0D8F9484901F0FFFA211C8C
:1035000001F0D2F9464900F07FFE211C01F0CCF910
:103510008046FC21201C890501F0C6F94146061CA5
:10352000201C01F0C1F9391C041C281C01F0BCF955
:10353000011C201C01F0E2FA011C301C01F0DEFA33
:10354000011CFE20800501F0D9FA52E0291C01F08F
:10355000ABF92E49041C01F0A7F92D4900F054FEE7
:10356000211C01F0A1F92B4901F0C8FA211C01F03E
:103570009BF9294900F048FE211C01F095F92749E3
:1035800001F0BCFA211C01F08FF9254900F03CFE46
:10359000211C01F089F9234B80469E42B9DD224B64
:1035A0009E422ADCFF231B06F618FE208005311CF4
:1035B00001F0A4FA8146FC21201C890501F074F970
:1035C000311C01F09BFA4146061C201C01F06CF9ED
:1035D000391C041C281C01F067F9011C201C01F097
:1035E0008DFA011C301C01F089FA011C484601F0DB
:1035F00085FA0CBC90469946F8BD0C4B0C4E99468A
:10360000D9E7FE208005F4E7FFFFFF314ED747AD35
:10361000F6740F317CF29334010DD037610BB63A5A
:10362000ABAA2A3D9999993E0000483F0000383FD7
:103630000000903EF0B556464D4644465F46F0B415
:10364000DFB0689C0C93C14B0A91A100C958D31EEE
:103650000791D917490F0C9CCB18DB100B93013C39
:103660000494DB430B9CDB171C4082460498E34325
:103670000B94DB00251A079C9B180693071919D495
:10368000699CAB00E4187F19A0460137002622ACE4
:1036900008E04146885901F0C7FB0135A0510436C6
:1036A000BD4207D0002DF4DA00200135A0510436C8
:1036B000BD42F7D1079C002C00DAFCE2079B0C9C72
:1036C0000133A7009B005EA89846C319F43B002174
:1036D0004AAC99463B1C8B46574608949A46049C34
:1036E000002C00DA1EE24D465D44002400262968C5
:1036F000385901F0D9F8011C301C00F085FD043464
:10370000061C043D5445F2D1089C042158468B44C4
:103710002650C345E3D15346BA461F1C079C079861
:10372000A3000DACE418B8460D94834657465C469A
:103730000898A400594603940459002926DD5D46E3
:103740000EAE013D039AAD00B24645199244B9460A
:10375000EE218905201C01F0A7F801F045FB01F0DE
:1037600063FB8721C905071C01F09EF8011C201C82
:1037700001F0C4F901F038FB296801C6381C00F0DB
:1037800043FD043D041C5645E2D14F46201C0699DA
:1037900000F09AFBF8218905041C01F085F800F07F
:1037A00029FB8221C90501F07FF8011C201C01F0D2
:1037B000A5F9041C01F018FB061C01F035FB011CE7
:1037C000201C01F09BF9069C051C002C00DC8BE101
:1037D0005A46013A92000EA883580821091B181C6A
:1037E0000841361888401B1A0EA98B500722121B5D
:1037F00013410593059C002C33DD58460136002803
:1038000000DCA0E1039C80220EAB52001919FF20BE
:103810000024944608E0002A03D06446A21A1A60E5
:10382000012404338B4208D01A68002CF3D0821A8A
:103830001A60043301248B42F6D1069800280DDD6E
:10384000012800D15BE1022808D15B46013B9B00C7
:103850000EA9C9583F220A400EA8C2500599022954
:1038600076D0281C002100F06BFC002800D189E0F4
:103870005946079C01398C420CDC0EA88D00431977
:103880000D9800221C68043B22438342FAD1002A8F
:1038900000D0F5E1079B0EA8013B9B00C358002B0D
:1038A00000D006E2079B0122023B9B00C318043BA9
:1038B000596801320029FAD05B465A440133099213
:1038C00093423DDC089C58469B00E4180B99131A60
:1038D0009B0005930B1C5B44A246699C9B000C98C3
:1038E000E3180393031C5B449B0022A9C918002220
:1038F0008B469146039C231C4B44586801F094FA74
:103900005946049C49440860002C1CDB0D1C002413
:1039100000262968385900F0C7FF011C301C00F050
:1039200073FC0434061C043D4445F2D15146043175
:103930000422059C8A469144043940C1A145D9D14D
:1039400009988346F3E60026F0E7C046C06B000006
:10395000FE20291C800501F0D1F8051C002C00D1A7
:103960007FE7FE200699800500F0AEFA011C281CB6
:1039700001F0C4F8051C281C002100F0E1FB002820
:1039800000D075E7069C281C614200F09DFA872153
:10399000C905D946051CB34600F0F6FB002800D146
:1039A0008EE1EE218905281C00F07EFF01F01CFA53
:1039B00001F03AFA8721C905041C00F075FF011CCB
:1039C000281C01F09BF801F00FFA039A0EA9885009
:1039D00006984B46083001330690201C9D00039347
:1039E00001F002FA0EA94851FE208005069900F068
:1039F0006BFA039C051C002C4EDBA2460120A300A1
:103A00008244089C5146E4188F000EAA7F42D618C3
:103A1000A146B8460024371C4E46385901F004FA36
:103A2000291C00F041FFEE2130518905281C00F0CF
:103A30003BFF043C051C4445EFD136AC079A594680
:103A400000200494AA4CB1468046069193465846FD
:103A50000027002813DB00260027002502E004369B
:103A600045450CDC4B469959A05900F01DFF011C3F
:103A7000381C00F0C9FB0135071CAB45EFDA4046A6
:103A800004998300CF50012204235B42904499445F
:103A9000C245DCD106998B46689C022C00DD87E08C
:103AA000002C52DC16D1039C002C00DA1EE136A853
:103AB000A400041935AD00202168043C00F0A4FBEB
:103AC000AC42F9D1059C002C02D080210906401897
:103AD0000A9C20605946072008405FB03CBC9046D5
:103AE0009946A246AB46F0BD069C002C11D15B4620
:103AF000013B9B000EA8C3581B1205937AE65B4658
:103B0000013B9B000EA9C9587F220A400EA8C25053
:103B1000A4E6FC21890500F037FB00280CD1002425
:103B200005949EE6089C0421584600268B442650A6
:103B3000C34500D0D3E5EEE502245846059401368E
:103B4000002800DD5EE6002477E6039C0021002CBF
:103B50000DDB039C36A8A3000021C41835AD081C5A
:103B60002168043C00F050FBAC42F9D1011C059CDB
:103B70000B1C002C02D0802000060B180A9C3698E3
:103B8000236000F0BBFF039C002C08DD039937ACD9
:103B90008D00651902CC00F037FBAC42FAD1059CD0
:103BA000002C02D08021090640180A9C606091E731
:103BB000689C032C00D08DE7039C002C00DC91E076
:103BC00036AC0494039B039C013BA500049C9B0022
:103BD000675935A8E418A1468046261CAA4600E08D
:103BE000271C3568391C281C00F00EFB041C211C06
:103BF000281C00F083FF391C00F006FB043EB06077
:103C000074604645ECD1039C55460020012C24DD10
:103C1000049C4E466759D04600E0271C3568391C85
:103C2000281C00F0F1FA041C211C281C00F066FF7F
:103C3000391C00F0E9FA706004983460043EB04228
:103C4000EBD1049C4546261C6519043600202968E2
:103C5000043D00F0D9FAB542F9D1059C002C38D0CA
:103C6000369A8024240613190A9C80212360049C20
:103C7000090663680A9C5B1840186360A06029E726
:103C8000069C0EA84359083CB34603910694002BAA
:103C900000D0A9E60A1C013A9300C318211C00E0D9
:103CA000013A043B5C6803920839002CF8D0069175
:103CB0009AE6012200E60C9CA7004AAC08942DE588
:103CC000281C01F091F8039C0EAA10514C46039455
:103CD0008AE636990A9C2160049C0A996468886087
:103CE0004C60F7E636AC00200494B6E70020E9E625
:103CF000CC6B0000F8B5354B4F4646464500C0B486
:103D0000041C0F1C90466D089D4205DC01F06CF808
:103D1000031C201C002B46D0211C201C00F0C4FDDD
:103D2000211C051C00F0C0FD2949061C281C00F0C0
:103D3000BBFD284900F0E2FE291C00F0B5FD264934
:103D400000F062FA291C00F0AFFD244900F0D6FE15
:103D5000291C00F0A9FD224900F056FA434681468D
:103D6000002B24D0FC218905381C00F09DFD49461C
:103D70008046301C00F098FD011C404600F0BEFE5D
:103D8000291C00F091FD391C00F0B8FE1549051CF6
:103D9000301C00F089FD011C281C00F035FA011CC4
:103DA000201C00F0ABFE0CBC90469946F8BD49467D
:103DB000281C00F079FD0B4900F0A0FE311C00F03A
:103DC00073FD211C00F020FAEDE7C046FFFFFF3134
:103DD000D3C92E2F342FD7321BEF3836010D50396F
:103DE0008988083CABAA2A3E002070474000400862
:103DF0007047C046F0B54300474680B45F081B0ECD
:103E00001E1C7F3E041C162E17DC8046002E1DDB78
:103E10001A4F051C374107420BD0194900F0F4F93D
:103E2000002100F0A7F9002803D0002C1CDB454638
:103E3000BD43281C04BC9046F0BD124B051C9F429C
:103E4000F7D9211C00F0E0F9051CF2E70C4900F05D
:103E5000DBF9002100F08EF9002803D0002C09DBEB
:103E60000025E6E7251CE4E780231B0433411E19E7
:103E7000B046DCE7002FF5D0034DDAE7FFFF7F0007
:103E8000CAF24971FFFF7F7F000080BF43005B08DB
:103E90000220002B00D17047074A04209918074AD6
:103EA0009142F8D9064A591E03209142F3D9054A96
:103EB0009B1858425841EEE7000080FFFFFFFF7E4D
:103EC000FEFF7F000000808070B5031C4400061CCC
:103ED0000D1C60081A1C00280FD0274988420ED8F4
:103EE000264A904211D9240E6419FE2C2ADC002C9B
:103EF00019DD234BE2051E403243101C70BD181C17
:103F0000191C00F081F9021CF7E79821181CC9055B
:103F100000F0CAFC1B4A031C95421CDB4400240E23
:103F2000061C193CE0E7221C163219DA164A9542A3
:103F300008DC191C154800F02DF8144900F0B4FCF9
:103F4000021CDAE7191C124800F024F8104900F0AE
:103F5000ABFC021CD1E70D4900F0A6FC021CCCE72B
:103F6000074A201C19301640C005CC213043890572
:103F700000F09AFC021CC0E7FFFF7F7FFFFF7F007D
:103F8000FFFF7F80B03CFFFF50C300006042A20DE6
:103F9000CAF249714000C90FC90740080843704779
:103FA00002B4714649084900095C49008E4402BCCC
:103FB0007047C04603B47146490840004900095A99
:103FC00049008E4403BC7047002934D001230022ED
:103FD00010B488422CD301242407A14204D2814288
:103FE00002D209011B01F8E7E400A14204D2814298
:103FF00002D249005B00F8E7884201D3401A1A4315
:104000004C08A04202D3001B5C0822438C08A0424B
:1040100002D3001B9C082243CC08A04202D3001B01
:10402000DC082243002803D01B0901D00909E3E77B
:10403000101C10BC7047002801D00020C04307B4FA
:10404000024802A14018029003BDC046D9000000FA
:104050000029F0D003B5FFF7B9FF0EBC4243891A1F
:104060001847C046002941D010B4041C4C40A44657
:1040700001230022002900D54942002800D54042F2
:1040800088422CD301242407A14204D2814202D2C7
:1040900009011B01F8E7E400A14204D2814202D2E7
:1040A00049005B00F8E7884201D3401A1A434C08E4
:1040B000A04202D3001B5C0822438C08A04202D31A
:1040C000001B9C082243CC08A04202D3001BDC0842
:1040D0002243002803D01B0901D00909E3E7101C83
:1040E0006446002C00D5404210BC7047002806D022
:1040F00003DB0020C043400801E08020000607B435
:10410000024802A14018029003BDC04619000000F9
:104110000029EBD003B5FFF7A7FF0EBC4243891A75
:104120001847C0467047C0468446081C6146FFE7F2
:104130001FB500F06DFB002801D40021C8421FBD4F
:1041400010B500F0F3FA4042013010BD10B500F098
:104150005FFB002801DB002010BD012010BDC04620
:1041600010B500F055FB002801DD002010BD012036
:1041700010BDC04610B500F003FB002801DC002094
:1041800010BD012010BDC04610B500F0F9FA00289E
:1041900001DA002010BD012010BDC0461C21012302
:1041A0001B04984201D3000C10391B0A984201D31A
:1041B000000A08391B09984201D30009043902A2F8
:1041C000105C40187047C04604030202010101015F
:1041D00000000000000000009E2110B5C905041C6D
:1041E000FFF7D2FF002803D1201C00F0FDFD10BD19
:1041F0009E21C905201C00F081FC00F0F5FD802304
:104200001B06C018F3E7C046F8B543024400C50FCB
:104210004E024800240E2A1C9B09000EC90FB60945
:104220008D425BD0221A002A00DC89E000281DD1D3
:10423000002E00D075E0580704D00F221A40042A3F
:1042400000D004338021C90419402A1C00293AD027
:104250000134FF2C00D17FE09B015B0A5B02E4B2DA
:10426000E405580AD20720431043F8BDFF2CE2D0E2
:104270008021C9040E431B2A00DD2DE1311C2020C2
:10428000D140821A9640721E96410E439B1B5801E4
:10429000D1D59B019F09381CFFF780FF421F974033
:1042A00094425BDC141B1F231B1B3A1C9F40611CA8
:1042B0003B1CCA405F1EBB4113430024BBE7131ED7
:1042C000B9D100230022DB08FF2C04D1002B43D0FE
:1042D0008020C00303435B025B0ABFE7211A002969
:1042E00040DD002823D0FF2CA5D08020C004064349
:1042F0001B2900DDEEE0301C2027C840791A8E40D3
:10430000711E8E4106439B19590100D493E7013475
:10431000FF2C55D0714901221A400B405B08134312
:1043200089E7013A002AB1D0FF2CA4D183E7002EFF
:1043300000D180E701390029E5D0FF2CD8D17AE7F8
:10434000002A1BD1621CD2B2012A4BDD9F1B7A01CD
:1043500023D5F71A0D1C9EE700237FE75F4BA41AB5
:104360003B4068E7002946D1611CC8B2012829DD1D
:10437000FF2924D0F3185B080C1C5CE7002C13D039
:10438000FF2818D08024E404524223431B2A4DDD29
:104390000123F31A041C0D1C79E7002F00D07AE7E3
:1043A0000023002200248EE7002B3BD0D243002ABA
:1043B000EFD0FF28EAD1331CFF240D1C3BE7FF247C
:1043C000002380E7002C5CD1002B00D180E0002E80
:1043D00000D130E79B19580100D42CE73F4A012453
:1043E000134028E7002C15D1002B40D1002E63D0BC
:1043F000331C0D1C1FE7002C21D1002B54D0C943C6
:10440000002904D0FF284CD01B2958DD01239B191B
:10441000041C79E7002B19D1002E48D0331C0D1C49
:10442000FF2408E7331C041C0D1C04E71C1C20257A
:10443000D440AA1A93405A1E93412343A9E7FF2868
:104440002FD08024E40449422343DDE7FF24002EDB
:1044500000D1F0E68022DB08D203134204D0F60834
:10446000164201D1331C0D1CDB00FF24E3E6002EB5
:1044700000D1E0E69A1B500100D420E7F31A0D1C8E
:10448000D9E6002B0DD0FF24002E00D1D3E68022E8
:10449000DB08D2031342E7D0F6081642E4D1331CFE
:1044A000E2E7331CFF24C6E6331C041CC3E680236A
:1044B00000229B04FF2406E7231C002203E71C1CA8
:1044C0002027CC40791A8B40591E8B4123439EE70D
:1044D000331CB0E6012616E70126D7E6FFFFFFFBF7
:1044E000F0B55F4656464D464446F0B44602450098
:1044F000C00F85B00F1C760A2D0E804641D0FF2DCF
:1045000026D08024240400212643F6007F3D8946DE
:104510008B46F90F7C027800640A000E00918A46EF
:104520003CD0FF2834D080231B041C430023E4002C
:104530007F380193009F4346019A7B4049469C4641
:1045400011430F2900D971E0764F89007F58BF468B
:10455000002E3ED10822022391469B46D9E75A46B7
:10456000341CC24601920199022937D0032900D197
:10457000CFE0012900D0ABE053460B4000220026DB
:1045800032E0002E19D10421012289469346C0E76A
:10459000221C531E9A4102320192CBE70127019758
:1045A000002CC7D0201CFFF7F9FD431F9C40762349
:1045B0005B420021181A0191BCE7301CFFF7EEFDA9
:1045C0007625431F9E406D4200232D1A99469B4637
:1045D0009FE70C23032199468B469AE7D446012393
:1045E00067463B40FF2200267602D205700ADB07B1
:1045F0001043184305B03CBC90469946A246AB46D2
:10460000F0BD80260023F603FF22EDE700220026FE
:10461000EAE78020C00306423BD0044239D1061CA1
:1046200026437602760A009BFF22DDE7281A0390D4
:1046300076016401A64239D3361B1A2201230120D8
:10464000311C5B007600002901DBB44201D8361B27
:104650000343013A002AF3DC741EA641341C1C43B8
:10466000039A7F32002A27DD630704D00F232340FB
:10467000042B00D00434270103D52B4B039A1C4094
:104680008032FE2A0BDD012361460B40FF2200260B
:10469000AAE706437602760A4346FF22A4E7A4016E
:1046A00001236746660AD2B23B409DE7039F1B2267
:1046B000013F03970023C2E77E23039F5B42DB1B7E
:1046C0001B2B07DD012361460B40002200268BE7F0
:1046D000D446C5E7221CDA40039B9E339C40231C32
:1046E0005C1EA34113435A0704D00F221A40042A28
:1046F00000D004335F0105D5012361460B40012240
:10470000002671E79E01624601231340760A0022CB
:104710006AE78026F60326437602760A5346FF228E
:1047200062E7C046F86B0000FFFFFFF74A02430252
:1047300070B55C0A550A43004A001B0EC60F120EE4
:10474000C90FFF2B05D0FF2A08D0012093420BD0C0
:1047500070BD0120002CFBD1FF2AF6D10120002DD5
:10476000F6D101209342F3D1AC42F1D18E4205D073
:10477000002BEDD1201C441EA041E9E70020E7E713
:104780004A024302F0B55C0A550A43004A001B0E78
:10479000C60F120EC90FFF2B31D0FF2A34D0002BC9
:1047A00016D1604260418446002A14D0002820D1EE
:1047B0008E4217D1934215DC04DBAC4212D80020A4
:1047C000AC4212D2704270414042012318430CE0C7
:1047D000002AEDD194466F426F416046002805D112
:1047E000002FE5D0704201231843F0BD0020002FB8
:1047F000FBD148424841404201231843F5E7002CD1
:10480000CBD002204042F0E7002DC8D0F9E7C046E7
:104810004A024302F0B55C0A550A43004A001B0EE7
:10482000C60F120EC90FFF2B27D0FF2A29D0002B4D
:1048300010D0002A15D194466F426F41604600287F
:1048400015D00020002F04D14842484140420123A6
:104850001843F0BD604260418446002AECD0002835
:10486000F2D18E4211D0704201231843F1E7002F9C
:10487000F7D0704201231843EBE70220002CE8D167
:10488000D3E70220002DE4D1D1E79342EBDC04DB37
:10489000AC42E8D80020AC42DBD2704270414042CA
:1048A00001231843D5E7C046F0B55F4656464D464E
:1048B0004446F0B44402460083B00F1C640A360E2E
:1048C000C50F002E41D0FF2E22D080231B040020D4
:1048D0001C43E4007F3E82468046391C4B007F0229
:1048E000C90F7F0A1B0E8B463BD0FF2B34D0802292
:1048F00012041743FF007F3B00215A466A40019291
:1049000052460A430F2A63D87A4892008258974643
:10491000002C3FD10822022392469846DDE70195FC
:10492000404602282AD1019A01251540FF23002480
:104930006402DB05600AED071843284303B03CBC62
:1049400090469946A246AB46F0BD002C27D10420E4
:10495000012282469046C0E7391C4A1E914102312D
:10496000CBE70121002FC8D0381CFFF717FC431FED
:104970009F4076235B421B1A0021BEE7032800D12B
:10498000AEE001284FD1019842461040C5B2002345
:104990000024CDE70C2303209A4680469DE7201C87
:1049A000FFF7FCFB7626431F9C4076420023361A15
:1049B0009A46984691E780240025E403FF23B7E751
:1049C0005B463C1C01938846AAE73C1C8846A7E747
:1049D000250C24043A0C240C3F04F6183F0C211C2F
:1049E000231C794353436F435543FB180A0C9B1810
:1049F000B1469F4202D980225202AD1809041A041E
:104A0000090C521894011B0C611E8C41920EED187A
:104A10001443AD012C43230105D501226308012075
:104A2000144081441C434B467F33002B2DDD60072F
:104A300004D00F222240042A00D00434220103D5DE
:104A40002D4B1C404B468033FE2B17DD019B01256F
:104A50001D400024FF236BE78020C003044208D0E0
:104A6000074206D1041C3C436402640A5D46FF23EE
:104A70005EE704436402640AFF2359E70198A40136
:104A80000125640ADBB2054052E77E235B424A46B9
:104A90009B1A1B2B05DD019B01251D4000240023D3
:104AA00046E7221CDA404B469E339C40231C5C1E8A
:104AB000A3411343580704D00F221A40042A00D000
:104AC00004335A0105D5019B01251D400024012313
:104AD0002EE701989C010125640A0540002327E781
:104AE0008027FF03019B3C43640201251D40640AAB
:104AF000FF231DE7386C0000FFFFFFF7F8B5C20F7A
:104B0000430244004D024800240E161C9B09000E6F
:104B1000C90FAD09FF2800D183E0012779408A42FF
:104B20005CD0221A002A00DC8EE000281ED1002D65
:104B300000D07AE0580704D00F221A40042A00D08F
:104B400004338021C90401221940324000293AD09F
:104B50000134FF2C00D183E09B015B0A5B02E4B2CD
:104B6000E405580AD20720431043F8BDFF2CE1D0DA
:104B70008021C9040D431B2A00DD31E1291C2020BE
:104B8000D140821A95406A1E95410D435B1B580126
:104B9000D0D59B019F09381CFFF700FB421F9740AF
:104BA00094425FDC141B1F231B1B3A1C9F40611C9B
:104BB0003B1CCA405F1EBB4113430024BAE7131ECF
:104BC000B8D100230022DB08FF2C04D1002B47D0F2
:104BD0008020C00303435B025B0ABFE7211A002960
:104BE00044DD002827D0FF2CA4D08020C00405433A
:104BF0001B2900DDF2E0281C2027C840791A8D40CF
:104C0000691E8D4105435B19590100D492E70134B7
:104C1000FF2C59D0734901221A400B405B08134303
:104C200088E7002D00D07AE777E7013A002AADD077
:104C3000FF2CA0D17EE7002D00D17BE701390029B0
:104C4000E1D0FF2CD4D175E7002A1BD1621CD2B26F
:104C5000012A4BDD5F1B7A0123D5EF1A0E1C9AE760
:104C600000237BE75F4BA41A3B4063E7002946D152
:104C7000611CC8B2012829DDFF2924D0EB185B088C
:104C80000C1C57E7002C13D0FF2818D08024E40414
:104C9000524223431B2A4DDD0123EB1A041C0E1C38
:104CA00075E7002F00D076E70023002200248AE772
:104CB000002B3BD0D243002AEFD0FF28EAD12B1C97
:104CC000FF240E1C36E7FF2400237CE7002C5CD178
:104CD000002B00D180E0002D00D12BE75B1958019B
:104CE00000D427E73F4A0124134023E7002C15D1C5
:104CF000002B40D1002D63D02B1C0E1C1AE7002C7A
:104D000021D1002B54D0C943002904D0FF284CD016
:104D10001B2958DD01235B19041C75E7002B19D1F1
:104D2000002D48D02B1C0E1CFF2403E72B1C041C59
:104D30000E1CFFE61C1C2026D440B21A93405A1EBB
:104D400093412343A9E7FF282FD08024E40449425C
:104D50002343DDE7FF24002D00D1EBE68022DB08B2
:104D6000D203134204D0ED08154201D12B1C0E1CB6
:104D7000DB00FF24DEE6002D00D1DBE65A1B5001EC
:104D800000D41CE7EB1A0E1CD4E6002B0DD0FF2438
:104D9000002D00D1CEE68022DB08D2031342E7D0FB
:104DA000ED081542E4D12B1CE2E72B1CFF24C1E6E1
:104DB0002B1C041CBEE6802300229B04FF2402E778
:104DC000231C0022FFE61C1C2027CC40791A8B40B4
:104DD000591E8B4123439EE72B1CABE6012512E7AE
:104DE0000125D3E6FFFFFFFB4302590A4300C20F30
:104DF0001B0E00207E2B0DDD9D2B0CDC8020000483
:104E00000143952B0ADC9620C31AD9404842002A58
:104E100000D1081C7047034BD018FBE7963B994024
:104E2000F4E7C046FFFFFF7F70B5041E3CD0C60FFD
:104E300000D04442201CFFF7B1F99E23251C1B1A09
:104E4000962B0CDC083884406402640ADBB2321C06
:104E50006402DB05600AD2071843104370BD992B2A
:104E60000ADD0522121A211CD1400A1C011C1B312B
:104E70008D40691E8D411543052801DD421F954077
:104E8000164C2C406A0704D00F221540042D00D088
:104E9000043461010CD59F23181AFF281AD0A401ED
:104EA000640AC3B2321CD3E7002200230024CFE7F8
:104EB000E408FF2B04D06402640ADBB2321CC7E7AB
:104EC000002C04D08020C00304436402640A321C16
:104ED000FF23BDE7321CFF230024B9E7FFFFFFFBE0
:104EE000F0B5564644465F464D46F0B41F1C0B03D2
:104EF0001B0B98464B0087B0041C81465B0DC80F06
:104F0000161C9A460090002B51D06A4B9A4531D01E
:104F10008022414652030A43630FD2001A43664B74
:104F200090460025E20091469A44002402953B03F6
:104F30001B0B9B46FD0F7B00311C5B0D019560D068
:104F40005C4A934254D08021584649030143720F72
:104F5000C9001143584A8B469B18F1000020009A63
:104F600004436A4003920F2C00D9ADE0534EA400D5
:104F70003459A746404604436ED100210225082437
:104F8000884689460295D2E7009C0298C346494666
:104F90000194022864D0032800D1ABE2012800D09C
:104FA00038E2019A002402400025A14660E0434611
:104FB00023434AD04046002800D1C0E1FFF7EEF875
:104FC000031E272B00DDB3E128210D1A211C083B0D
:104FD0004246E9409A400D1C1543221C9A40A846BF
:104FE0009146374B00251B1A9A46002402959EE7EE
:104FF0005A4616430320002EB1D1B34600210220A9
:10500000ADE75A4632431BD05B46002B00D18AE104
:105010005846FFF7C3F8272800DD7DE12822171A3C
:10502000011C321C08395B46FA408B40171C1F4399
:10503000331C8B40BB46191C214B1B1A00208EE7EA
:105040000027BB460021012089E700200125042418
:105050008046814602956AE703250C24029566E79F
:10506000019C0394039D01222A400024114DA14676
:10507000002000212403260B0C0D2405114B344382
:105080002D0523402B435B005B08D207191C4846C3
:10509000114307B03CBC90469946A246AB46F0BDD2
:1050A0000022802424039146024DE1E700240025DC
:1050B000A146DDE7FF07000001FCFFFF786C000060
:1050C0000DFCFFFFFFFF0F805546ED1A0495D845F4
:1050D00000D953E100D14EE1049C0025013C4E462D
:1050E00004944746A946584603020C0E1C43090285
:1050F000250C23041B0C0091381C291C0193FEF77E
:1051000063FF019983464143381C8A46291CFEF7F8
:105110009FFF330C090419438A450CD95B460919D2
:10512000013B8C4200D947E18A4500D844E1022284
:105130005242934409195346CB1A181C291C98460D
:10514000FEF742FF071C0198291C7843824640461F
:10515000FEF77EFF36040B04360C33439A4509D91B
:105160001B197A1E9C4200D924E19A4500D821E1FE
:10517000023F1B195E4632041743380CBB46009EA3
:10518000009F51463F0C32045B1A5946BA46120C36
:105190000F043F0C904651467A434F4341464143EA
:1051A00056467043CF19160CBE19B14202D980275A
:1051B0007F02C019310C12043604120C4018B618C4
:1051C000834200D2C4E000D1BEE0191A4846861BD3
:1051D000B145BF417F42CF1BA74200D113E1291C3B
:1051E000381CFEF7F1FE019902904143381C8946B4
:1051F000291CFEF72DFF330C0904194389450CD9EE
:10520000029B0919013B8C4200D9FFE0894500D877
:10521000FCE0029F0919023F02974F46CF1B381C42
:10522000291C0597FEF7D0FE071C0198291C78431E
:1052300081460598FEF70CFF36040904360C0E4330
:10524000B14509D936197B1EB44200D9E0E0B14519
:1052500000D8DDE0023F3619029D4946761A29043E
:1052600039430B0457460A0C1B0C4046454658432D
:1052700055437B437A43EB18070CDB199D4202D957
:1052800080256D0252191D0C00041B04000C5219DC
:105290001B18964235D300D1FCE001231943049E2C
:1052A000994FF519002D00DCA1E0480709D00F2324
:1052B0000B40042B05D00B1D8B42894149428B4486
:1052C000191C5A46D20107D5904B5C46049E802794
:1052D0001C40FF00A346F5198D4B9D427ADD039CCF
:1052E0000122224000248B4DA146C1E680242403E4
:1052F000474627424CD13C432403240B009A854D5A
:10530000B6E63619481EB4425ED9011C9642C4D195
:10531000009E9E42C1D1C2E7031C283B311C99402C
:105320008B46002188E6301CFEF738FF203072E6FD
:10533000283B211C994000228846914651E6201CBA
:10534000FEF72CFF20303BE60021B14500D33DE7BE
:10535000009F5A46B944B945BF417F423F19FB18E7
:10536000013A9C421ED2984200D97EE000D1B5E0BD
:10537000191A93462AE7894500D8ADE648464646BD
:1053800042467708D3074608C0071E438146AAE66F
:105390005846204212D1044324032A1C240B894678
:1053A0005C4D65E6A342E3D1009F4F45DBD9211A4E
:1053B00093460BE7171CDDE69B46BCE63C43240303
:1053C000240B009A534D53E6B24259D800D18AE0DB
:1053D000011C62E75F46C9087B07039E0B437C0202
:1053E0006D0501229946240B6D0D324040E64A4B73
:1053F000049FDB1B382B10DD039C0122224000247C
:105400000025A14634E60121494248E7029304E71A
:105410001F1C21E7019C039441E71F2B40DC3F4800
:10542000049F0C1C3A1858469140DC4090402043A1
:105430000A1C511E8A41011C11435A46DA40131CB2
:10544000480709D00F220A40042A05D00A1D8A42C3
:10545000894149425B18111C1A0234D5039C012270
:10546000224000240125A14602E6009F0221494274
:10547000B9448B44B945894149420919CB18A4E67E
:10548000009D881E6900A942AD416D422C19361954
:1054900000913AE7002B00D033E70024009437E76F
:1054A0001F4A049C5D46121BD5402A1C202B1FD08E
:1054B0001C4E5F46A3199F403B1C19434B1E99414C
:1054C00011430023BCE75A07C9080A43039F9146CA
:1054D0005B0201221C0B3A400025C9E54E45C4D8A9
:1054E0009346002172E6009F9F42C9D3011C0FE73B
:1054F0000023E2E7802424035F463C432403240B7B
:10550000019A8946034DB3E5FF030000FFFFFFFE4C
:10551000FE070000FF07000002FCFFFF1E04000062
:10552000E2FBFFFF3E040000F0B5564644465F46EE
:105530004D46F0B41F1C0B031B0B9A464B0087B063
:10554000041C80465B0DC80F161C02938146002B7D
:1055500068D0694B0299994232D080225346520357
:105560001A43D200630F1A439246644AE000891836
:1055700080460291002400253B031B0B9B467800CC
:10558000FB0F321C400D039300D175E05A4B98423B
:1055900069D08022594652030A43730FD2001A433E
:1055A000564B9346C018F200002303994E467140B3
:1055B0001C430F2C00D9A9E0514EA4003459A74632
:1055C00053461C4300D087E00025AA46A84608247D
:1055D0000225D1E74946022D6CD0032D00D117E2F8
:1055E000012D00D058E10D40EDB20024A946002362
:1055F000A0460020002125030A0D1C052D0B1205D5
:10560000404B2A43134023435B004C465B08E207B0
:10561000191C4046114307B03CBC90469946A2462F
:10562000AB46F0BD5346234350D05346002B00D128
:1056300084E15046FEF7B2FD031E272B00DD76E124
:1056400028210D1A211C083B5246E9409A400D1CA6
:105650001543221C9A40AA4690462B4B00241B1A45
:105660000293002588E75B461E430323002E9CD14E
:10567000B3460022022398E75B46334321D05846C5
:10568000002800D14EE1FEF789FD272800DD42E128
:1056900028210F1A021C311C083A5B46F94093403E
:1056A0000F1C1F43331C9340BB461A1C164B181A81
:1056B00000237AE701230B4000249946A0460E4BB5
:1056C00097E70027BB46002201236EE70021042450
:1056D0008A46884601254FE70C2403254CE7002520
:1056E0008024A9462403A846034B82E7DA46904665
:1056F00003991D1C6FE7C046FF07000001FCFFFF78
:10570000B86C0000FFFF0F800DFCFFFF029F160C1E
:10571000381804904046070C0004000C1204120CC8
:10572000031C5343041C3D1C7443554398463B1CC7
:1057300073436419A44644460293230C63449D4278
:1057400004D9029D802464022D1902951D0C039535
:1057500045462C041B04240C1C1905945C46230CA0
:10576000051C58432404240C8446381C60436543BC
:105770005F438146CC44280C6044BB46814502D936
:1057800080277F02BB442D04070C2D0C0004401918
:105790005546BC462F04E3448446280C3D0C2F1C80
:1057A0005743B8462F1C77434243B94647463F0C00
:1057B0009144BA46D14446434A4502D98022520216
:1057C000B6184F463A0CB6183A0447463F043F0C09
:1057D000B8462F1C67435D43444358436519019005
:1057E000380C2D184244B846AC4204D901988023A5
:1057F0005B02C0180190039C029F201C6044C019EA
:105800006045A44147466442A4462B043C049946A3
:10581000240C4C44A046D8448018C246E24490422E
:105820009241574652429146F219E245BF417F42AA
:105830004B46BC46D845BF41D4187F4263461F4300
:105840002D0C7F19B24292414C45AD4152426D42FE
:105850001543019E7D19AB19E20D5B02059F1343B1
:1058600042023A439A46531E9A41C30D101C1843F4
:105870006402204380465046C0010DD545460122B2
:105880005646049C6B082A401A43F30701341A4316
:10589000760804949046B246049E634FF319002B99
:1058A00061DD404640070BD00F2244462240042AC7
:1058B00006D04246043242458041404282449046EE
:1058C0005546ED0107D5594B5646049F80201E4092
:1058D000C000B2463B18564A934200DDEAE6444611
:1058E0005546E2086807104301226C025B050A4036
:1058F0008046240B5B0D91467BE6DA4690461D1CE4
:1059000069E680242403574627421CD13C432403E4
:10591000240B484B6DE6031C283B311C99408B46F9
:105920000022C3E6301CFEF739FC2030ADE6283BF0
:10593000211C994000228A4690468EE6201CFEF7E4
:105940002DFC203078E65846204207D104430399C5
:105950002403240B89469046364B4AE63C432403F5
:10596000240B344B45E6344B049E9B1B382B06DD41
:1059700001230B4000249946A046002339E61F2B43
:1059800025DC049C2D4D464660195246444686400F
:10599000DC4082405746301C2243DF40441EA04179
:1059A00002433B1C540709D00F201040042805D0A7
:1059B000101D9042924152429B18021C1D021AD5A2
:1059C00001230B4000249946A046012311E61C4800
:1059D000049C5546001BC540281C202B16D0194E90
:1059E0005746A21997403A1C43461A43531E9A4100
:1059F00002430023D6E758075B02D2081C0B0123A1
:105A00000B401043994680460023F2E50022EBE765
:105A10008024240350460123044319402403240B0B
:105A20008946044BE5E5C046FF030000FFFFFFFE8B
:105A3000FE070000FF07000002FCFFFF1E0400003D
:105A4000E2FBFFFF3E04000043001B0E5A1C410214
:105A5000D2B270B54C0AC50F012A17DDE0229200C0
:105A60006407090B9818002200231E0D221C340520
:105A70000C431B49400540082140014349004908A7
:105A8000ED070B1C2B43101C191C70BD002B15D1EE
:105A9000002C1CD0201CFEF781FB0A281ADC0B21ED
:105AA000091A231CCB40191C031C15339C400D4BB9
:105AB0000903181A4005090B400DD4E7002C03D048
:105AC0006407090B0848CEE707480021CBE7002010
:105AD0000021C8E7011C0B398C40211C0024E6E79B
