:1000000000180020C10000004D1E0000191E000055
:10001000191E0000191E0000191E0000191E000004
:10002000191E0000191E0000191E00004D1E0000C0
:100030004D1E0000191E00004D1E0000091E00008C
:10004000DD0600004D1E00004D1E00004D1E00008C
:100050004D1E00004D1E00004D1E00004D1E0000F4
:100060004D1E00004D1E00004D1E00004D1E0000E4
:1000700095140000AD2200001D1D00004D1E000063
:100080004D1E00004D1E00004D1E00004D1E0000C4
:100090004D1E00004D1E0000992C00004D1E00005A
:1000A000A90800004D1E00004D1E00004D1E00005E
:1000B0004D1E0000D52B00004D1E00004D1E0000FF
:1000C00038B501F0C7FE454A454B1A60454A464BD4
:1000D0001A60464A464B1A60464B0822197811426C
:1000E00002D019780A431A70434B2A221A7000234F
:1000F000424A43499A188A4204D24249C9580433B1
:100100001160F5E7404B41491A1F181D00238A4230
:1001100002D21360031CF6E73D493E4A5958101CB1
:1001200099500433C02BF7D100239A083A49920022
:10013000521803211940C9001568FF248C40A543BB
:100140002C1C80258D40291C214301331160202B5C
:10015000EBD1324B8A221860314B1A70314B24227A
:100160005A70A0221A709A799107FCD59A79D5060F
:10017000FCD498790C212B4A01400829F9D103219C
:100180001171402151719A799106FCD59A795506E1
:10019000FCD52549254A1160224A20211170997900
:1001A0000C220A400C2AFAD1214A224B1A60224A18
:1001B000224B1A60224B00221A60224B07221A603F
:1001C000214A224B1A6062B601F0D6FA04F0ECFE26
:1001D00001F046FE00F04AFAFEE7C046300004F0A7
:1001E00034800440823F0000388004400100000F4A
:1001F0003C80044002D0074000E0074060FDFF1F44
:10020000540600201060000004070020400D00206C
:100210000000000000F9FF1F00E400E008ED00E02E
:100220000050064000400640000001104480044099
:10023000C0000505048004407FBB000014E000E01E
:1002400018E000E010E000E00000202020ED00E0D9
:10025000FFFFFFFFFFFFFFFFFFFFFFFFFFFFFFFFAE
:10026000FFFFFFFFFFFFFFFFFFFFFFFFFFFFFFFF9E
:10027000FFFFFFFFFFFFFFFFFFFFFFFFFFFFFFFF8E
:10028000FFFFFFFFFFFFFFFFFFFFFFFFFFFFFFFF7E
:10029000FFFFFFFFFFFFFFFFFFFFFFFFFFFFFFFF6E
:1002A000FFFFFFFFFFFFFFFFFFFFFFFFFFFFFFFF5E
:1002B000FFFFFFFFFFFFFFFFFFFFFFFFFFFFFFFF4E
:1002C000FFFFFFFFFFFFFFFFFFFFFFFFFFFFFFFF3E
:1002D000FFFFFFFFFFFFFFFFFFFFFFFFFFFFFFFF2E
:1002E000FFFFFFFFFFFFFFFFFFFFFFFFFFFFFFFF1E
:1002F000FFFFFFFFFFFFFFFFFFFFFFFFFFFFFFFF0E
:10030000FFFFFFFFFFFFFFFFFFFFFFFFFFFFFFFFFD
:10031000FFFFFFFFFFFFFFFFFFFFFFFFFFFFFFFFED
:10032000FFFFFFFFFFFFFFFFFFFFFFFFFFFFFFFFDD
:10033000FFFFFFFFFFFFFFFFFFFFFFFFFFFFFFFFCD
:10034000FFFFFFFFFFFFFFFFFFFFFFFFFFFFFFFFBD
:10035000FFFFFFFFFFFFFFFFFFFFFFFFFFFFFFFFAD
:10036000FFFFFFFFFFFFFFFFFFFFFFFFFFFFFFFF9D
:10037000FFFFFFFFFFFFFFFFFFFFFFFFFFFFFFFF8D
:10038000FFFFFFFFFFFFFFFFFFFFFFFFFFFFFFFF7D
:10039000FFFFFFFFFFFFFFFFFFFFFFFFFFFFFFFF6D
:1003A000FFFFFFFFFFFFFFFFFFFFFFFFFFFFFFFF5D
:1003B000FFFFFFFFFFFFFFFFFFFFFFFFFFFFFFFF4D
:1003C000FFFFFFFFFFFFFFFFFFFFFFFFFFFFFFFF3D
:1003D000FFFFFFFFFFFFFFFFFFFFFFFFFFFFFFFF2D
:1003E000FFFFFFFFFFFFFFFFFFFFFFFFFFFFFFFF1D
:1003F000FFFFFFFFFFFFFFFFFFFFFFFFFFFFFFFF0D
:10040000FFFFFFFFFFFFFFFFFFFFFFFFDEF9FFFF23
:1004100010B5064C2378002B07D1054B002B02D0DA
:10042000044800E000BF0123237010BD0007002036
:10043000000000001060000008B5084B002B03D03E
:100440000748084900E000BF07480368002B03D0B5
:10045000064B002B00D0984708BDC04600000000A6
:100460001060000004070020540600200000000077
:1004700038B50A24051C0460031CFE2292055A604C
:1004800000229A60DA601A61FC229205013C5A61EE
:100490001433002CF1D1201C04F0AAF904F094FCD0
:1004A0000A4B094A04F000FA04F0E0FC02F068FC90
:1004B000142363430134EB1898600A2CEBD1281CF9
:1004C00038BDC046C046C04667D5E76A2BF6E33F55
:1004D000F0B5076885B0041C381C0D1C04F088F9C1
:1004E000011C281C03F0C4FE03A902F02BFC0190A0
:1004F000039804F05DF91426331C4343391CE318B8
:1005000001309D6803F00EFC4E43A419291CA0681D
:1005100003F0D8FF019903F0ABFE011C281C03F087
:100520007DFC05B0F0BDFFFFF7B5520001938B1CB9
:10053000071C0C1C9D18A61CAE4214D00899381C30
:10054000FFF7C6FF8A21C90503F092FE03F04EFCB7
:10055000054B0199C01880B22080089803F05EFC1A
:10056000341C0890E7E7F7BDFF0700000D4B802221
:10057000196812060A4310B51A600B4BC2221A7092
:1005800001240A4B01201C8001F0DCF8084BC82232
:1005900012011A80074B04349C42F2D1064B81228F
:1005A0001A7010BD3C80044021F0034000F003406D
:1005B00002F003400108000022F003401C4B02211E
:1005C0001A68F0B50A431A601A4A802511686D004E
:1005D00029431160184A0021184C11702668184FE1
:1005E0003E432660174C266835432560164C206034
:1005F000164C174804601C688020000420431860D3
:100600001448154B03241860144B186820431860D5
:10061000134B1960134BFF2118688843011C4020BD
:1006200001431960104B01211960ED231370F0BDD7
:100630003C80044040800440001002400C81004097
:10064000005040E0088100400081004000F003407D
:100650000481004050C30000007103400871034052
:100660000070034000E400E000E100E010B5C0B01D
:1006700003A8FFF7FDFE164C00230093F0239B0513
:1006800003A8211C8022FFF74FFF00231801114A05
:10069000590080B201338852802BF7D1FFF766FFF3
:1006A000201CFFF78BFF0D20012100F0E3FFC82085
:1006B00001F048F8084B1A68910002D41B68DA0070
:1006C00003D50D20012100F0B5FF002040B010BD82
:1006D0000008002000090020088100400C4A802307
:1006E00011685B040B4013600A4B0B491878002813
:1006F00003D00A480860002102E00948086001218F
:100700001970116880235B000B4313607047C0466B
:10071000088100401C0700200081004000080020E4
:1007200000090020F0B50B4F02223B780A4E1A4315
:10073000D2000A4DB418606028788824002800D0C0
:10074000C82409040C43B45001225040534028707F
:100750003B70F0BD680A002000F8FF1FE00A00208F
:10076000431E10B5032B0FD872B6084A990088585B
:10077000002807D044685B008C50054A01889C5AC9
:10078000611A995262B600E0002010BD580A00209C
:10079000280D0020431E0020032B09D872B6054AFD
:1007A0009B009B58002B02D001305B68FAE762B6D1
:1007B0007047C046AC0A002038B572B60123164A0D
:1007C0009A18013A127811071CD5144A5C01A558F1
:1007D0009900002D05D1131908305860104BA35013
:1007E0000AE001242143C9008C58002C0AD1531877
:1007F000083058600B4B8B500B4B1A78013A1A702B
:1008000062B608E00133052BD9D162B6064B00224F
:100810001A7001F003FE38BDD859000000F8FF1F20
:1008200088004000C8004000D60A0020421E10B5D3
:10083000032A30D8022380001843174BC0001B182E
:1008400072B6164CA05C032809D803F0B3F9140261
:1008500016050833022011E0083304200EE010488A
:10086000920014580F4B002C01D1115001E0985800
:10087000416099500EE0032000E00520A0540A1CBE
:1008800008325A608822180700D5C822098809044E
:100890000A431A6062B610BD00F8FF1F140A002058
:1008A000AC0A0020BC0A0020F7B5B5490C780E1C34
:1008B000E4B262071DD5B34B1B78002B16D0B24AA9
:1008C0001378DBB2002B05D0013BDBB21370002B99
:1008D00000D100BEAD4A1378DBB2002B06D0013B3D
:1008E000DBB21370002B01D101F0D8FEA44D04231C
:1008F0002B700825221C2A4000D154E2A44BA54CA1
:100900001B78DBB21E099A08002E00D0DDE1D5006D
:1009100065192F686A68B806000F01380C2800D9DD
:10092000D0E103F051F993019301CF01CF01CF0141
:10093000CF01CF01CF01AC01CF01CF01CF010D001D
:1009400095491368954F526895482960954D964989
:1009500000263B607A609BB201222E602661A66170
:1009600002708B4218D8D021C9008B4200D3E5E039
:10097000812191408B4200D1C2E006D8802B00D16A
:10098000A9E0822B00D1ABE0F5E0884A934200D188
:10099000C5E0A022D20017E085498B4200D152E188
:1009A0000DD8882109018B4200D18EE090221201DE
:1009B000934200D0DFE0BA78724B1A7009E07D4AAA
:1009C000934200D1CFE07C4A0026934200D115E14A
:1009D000D1E0A319196A090603D5586A083801F04D
:1009E0001DFD0836802EF4D100252E1C734AA85810
:1009F000002805D04368019301F010FD0198F7E746
:100A00006E496F4B6F4A4851E850A858002805D0EE
:100A10004368019301F002FD0198F7E76A4B6B4AC6
:100A2000E8507300D0526749694B4851F05C023876
:100A3000032807D803F0BEF802040204002200E0F5
:100A400001229A5501360435042ECFD1614A002384
:100A500013700125161C604BEA18604B9200EB18CE
:100A6000013B1B781370190720D501F0B9FC6B010D
:100A7000002805D0E21808305060594AE25003E0DF
:100A8000E05033780133337001F0AAFC0122AB004F
:100A90001343DB00002805D0E218083050603E4ABE
:100AA000E25003E0E050337801333370AB000222B0
:100AB0001A43D2000021A150032213439340013571
:100AC000E150052DC7D10E1C98E02E4B454C1B78EC
:100AD000161C237093E0434C2670667002268EE04D
:100AE000BB88042B47D83F4C3F4D9B002670667057
:100AF0005B191B780226334200D180E022707EE031
:100B0000BA887F231340042B35DC7E88002E32D137
:100B100035499B005B181A7802218A4329E0BA887C
:100B20007F231340042B26DC7E88002E23D12E4AFF
:100B30009B009B181A7802210A431AE07A88B98828
:100B40002A4B5C68002C16D01888904209D158882E
:100B5000884206D1120A032A01D126784FE01E8965
:100B60004DE00C33EDE7224B1A68224B1A60BA783D
:100B7000214B1A7042E01C4B0F221A7063E0C046F2
:100B800080200740DF0A0020690A0020710C002045
:100B90009020074000F8FF1FC8004000CC0A00204A
:100BA000E00A0020000A0020810600000203000085
:100BB000212000002122000021230000580A0020EB
:100BC000040A0020AC0A0020BC0A0020280D0020E6
:100BD000140A0020D60A002030C80110D85900009D
:100BE00088004000D70A0020C0200740DC590000E0
:100BF000780B0020380D0020800C0020341CFB886E
:100C00009E4200D91E1C371E402F00D94027201CB1
:100C1000391CFFF787FDE419F61B03D1351C402F63
:100C200004D010E04025B54200D9351C201C291CF9
:100C3000FFF778FD6419761B01D1402D03D1754D66
:100C4000754B2C601E800122744B3AE0744B19885E
:100C5000744B994210D10023D05C7349C8540133BE
:100C6000072BF9D10B68862B02D1704B0F221A701B
:100C70000020011CFFF756FD6D4B2B6022E0654FF5
:100C80003D68002D13D064490E88341E402C00D9D5
:100C90004024281C211CFFF745FD361B5E4AB6B2D6
:100CA0001680002E01D1402C00D12E193E605C4BE5
:100CB000A0221988D200914204D100225A709A7859
:100CC0005C4B1A700122554B61E0D200A418606899
:100CD000013E0838F6B22B4036D001F09FFB564952
:100CE000B0004258554B002A1BD055684550111C86
:100CF000985D0831616003280BD802F05BFF0204A5
:100D00000608032104E0022102E0052100E004219D
:100D100099558823270700D5C82312881204134346
:100D20003CE0985D032808D802F044FF39390204FA
:100D3000002200E001229A5531E02C4062426241DB
:100D40000324A41A9C552AE062880280002A20D03D
:100D50003B4D43804360B3005F593A49002F01D1B6
:100D6000585101E0CD586860C850374B7600F15AB1
:100D70005218F25201F034FB002804D008306060B1
:100D800021070AD507E0314B20601A7801321A702A
:100D900005E02C4201D0264B00E02D4B23602D4A6C
:100DA0000823137081E5012004421ED01B49022351
:100DB0000B70294B264C1A70284B294D1C609C60E7
:100DC000284C1A61DC609A615D60274B0D241C7011
:100DD000264CFF232370174C33702270244A137063
:100DE000244B9F221A70087013E063B2002B04DAC0
:100DF0001D4B0D221A708023337002231C4204D035
:100E00001A4A1178C9B21170337010231C4200D0F5
:100E10003370F7BD000A0020D40A00209420074058
:100E2000CC0A002021200000300D0020690A00209B
:100E3000C800400098200740AC0A0020140A002097
:100E4000580A0020040A0020280D0020D60A00209D
:100E50008800400080200740680A002000F8FF1F3B
:100E6000180A00206C0A0020C02007408820074094
:100E70008C2007408420074010B501F077FA00224B
:100E80001A4B0021D150981808324160882AF7D1B6
:100E9000174A80201468C00220431060180A154ABF
:100EA000C0B21070180C144AC0B21070134A1B0E56
:100EB0001370134AFF231370124A13481370134A16
:100EC0001370012202701248017012490A70124A0E
:100ED000116899430B1C70210B4313600F4B802248
:100EE00052041A600E4B10221A7010BD00F8FF1F3A
:100EF000348004409C200740B0200740B4200740C5
:100F00008020074088200740942007401020074099
:100F1000002107408420074018E400E000E100E0E1
:100F200008210740264B80221968D2000A431A6024
:100F3000244A00231370244A1370244A1370244A4D
:100F40001370244A1370244B1B78032B09D0152BE4
:100F500004D0002B08D1214A214B04E01F4A214B29
:100F600001E0214A214B1A60214B1B78042B0BD046
:100F7000052B05D0012B0BD1D12292001D4B06E091
:100F8000D12292001C4B02E091221C4B92001A606D
:100F90001B4BC204D20E1A70C0B2002258709A7055
:100FA0002C22DA70174BFF22196891430A1C40214A
:100FB0000A431A60144B802252011A607047C046DF
:100FC000348004406D0B0020E90A0020740B0020DF
:100FD0006E0B0020E80A00202A0B002013030000FB
:100FE00040A0044018C004401302000004900440D4
:100FF00064FDFF1F44A004401CC00440089004404E
:1010000000A006400CE400E000E100E010B5174B42
:10101000132299789143032202400A43410701D5E4
:1010200010210A439A700F2210490240042A03D16A
:101030008A79402422438A715A7910218A430842CE
:1010400000D00A435A71997910229143840600D541
:101050001143064A9971C10506D5537811782020AD
:10106000DBB201431170537010BDC04600A00640B2
:1010700008B5124B1B685A051ED5114B1B78DBB205
:10108000002B02D001F0E4FDF7E70E4A8021490170
:1010900011600D4A0D49D3700422FF320A600C49D9
:1010A0000A600C4A13700C4A13700C4B1B68002B1F
:1010B00002D00B4A12781A7108BDC0463480044031
:1010C000E80A002080E100E000A0064040A00440C3
:1010D00044A004406D0B0020E90A0020E40A00202F
:1010E0002B0B002038B5041C0B4B1D78EDB2002DE6
:1010F000FAD1201C012100F0BDFA291C201C00F0AF
:1011000099FA0C225443054B054AE1581C19116009
:10111000044B227A1A7038BDE80A00209458000067
:10112000700B00206C0B002030B5002901D080230B
:101130001843224A1378141C98423ED0204A126861
:10114000550539D57F221340042B0FD004D8012B2D
:101150000FD100221B4B0BE0052B04D0182B08D11C
:101160000022194B04E00022184B01E0184B00222A
:101170001A604423002900D060237F220240042A01
:1011800015D006D8012A17D1C022920013430D4A68
:1011900011E0052A06D0182A0ED18022D20013436E
:1011A000094A08E0C02292001343084A03E0802263
:1011B00092001343064A1360207030BD64FDFF1F88
:1011C0003480044044A0044050D004401CC004407B
:1011D0000890044010B51A4A137898422ED0194945
:1011E00009684C0529D5032B0FD004D8002B0FD14B
:1011F00015490B600CE0152B04D0192B08D10021E8
:10120000124B04E00021124B01E0124B0021196047
:1012100003280FD004D800280FD10F490A4B0BE048
:10122000152804D0192808D10C49084B04E00A49B4
:10123000074B01E00A49074B1960107010BDC0460A
:101240002A0B00203480044040A0044054D00440C5
:1012500018C004400490044013030000130400006D
:101260001302000038B50E4B1A680023510514D53F
:101270000C4C1A2810D80C2343430B4A0B4D995899
:10128000D3181B7A216001212B7000F0F3F9236839
:101290002A781A72012300E02360181C38BDC0466A
:1012A00034800440E40A0020945800002B0B0020F6
:1012B00000207047F8B5214B071C1B685A053BD529
:1012C0001F4B1B68002B02D01E4A12781A711E4E4B
:1012D000002334783F220134A2425B415B421C4030
:1012E0001A4D2B78A3421CD100F0C4FD402813DC1A
:1012F000174A13795BB2002BF2DA2B780021013305
:101300003F209842494149420B401249C95CDBB237
:10131000C9B2D1712B70E3E7FF28E1DD01F098FC41
:10132000DEE70C4BFFB21F550B4B01221A70084B26
:10133000E4B2AC223470DA70F8BDC04634800440A8
:10134000700B00206C0B0020740B00206E0B002033
:1013500000A00640EA0A0020E80A002038B5041C74
:101360004518AC4204D02078FFF7A4FF0134F8E719
:1013700038BDFFFF08B5044B1B78002B02D001F0ED
:1013800067FCF8E708BDC046E80A0020064B074A9C
:101390001B781078DBB2C0B2834201D33F3000E04B
:1013A0000138C01A7047C046740B00206E0B002035
:1013B000054B1878054BC0B21B78DBB2984200D2BF
:1013C0004030C01A7047C0466D0B0020E90A00206B
:1013D00010B5124B12491A780B78D2B2DBB29A428E
:1013E00019D001333F2400209C4240414042034039
:1013F0000C48DCB2C05C0C700B49C0B20968002913
:101400000BD09A4200D24032D31A1A2B05DC074B7C
:101410001B780B7201E00120404210BD6D0B0020D3
:10142000E90A00202C0B0020E40A00202B0B0020EE
:101430000A4B1A780A4B1B78DBB29A420AD0013366
:1014400000223F219942524152421340054AD05C4A
:10145000C0B201E0012040427047C0466D0B002041
:10146000E90A00202C0B0020064B1A78064BD2B25A
:101470001A70064B1B68002B02D0054A12781A72AC
:101480007047C046E90A00206D0B0020E40A0020E6
:101490002B0B002030B5254A1379990612D5244923
:1014A000D4790B78002001333F259D4240414042D2
:1014B00003402048E4B20078834203D01E48C4545D
:1014C000DBB20B70D178194CC9B24BB2002B1ADACF
:1014D00023795BB2002B16DA184B19481D78037874
:1014E000DBB29D4202D16C23E3700CE00133002497
:1014F0003F259D42644164422340124CE45CDBB2D0
:10150000E4B2D4710370402319420ED0117919420C
:101510000BD00D4B002119700C4B1B688B4202D075
:101520000B49097819722C23D37030BD00A00640F6
:101530006D0B0020E90A00202C0B0020740B00200A
:101540006E0B0020EA0A0020E80A0020700B002041
:101550006C0B00201B4B1C4A19781C4B082901D12D
:10156000002102E00A2903D138211160132206E08C
:101570000C2901D1342100E03C21116012221A60B3
:10158000134B1A78134B002A01D0002200E00122ED
:101590001A60114B1A78114B012A01D880220CE0F5
:1015A000042A01D8842208E0082A01D8852204E010
:1015B000102A01D8862200E087221A60084B0122F7
:1015C0001A70704765FDFF1F08B003400CB0034060
:1015D000760B002020B0034066FDFF1F24B00340BF
:1015E000750B0020F8B5061C0D1C171C0024301CC0
:1015F000391C02F037FB092901D8303100E03731BE
:10160000C9B22955301C391C02F0E8FA061E01D077
:101610000134ECE72B1958702B1C5A1BA24206DA36
:101620001A78295D19702A550133013CF5E7281C09
:10163000F8BDFFFF10B51A2818D80C2358430C4AE0
:10164000835810181C7D027A224205D0002901D04F
:101650001A710BE01A7209E043681A68002902D077
:1016600003210A4301E002218A431A6010BDC046EB
:1016700094580000F0B51A283DD80C273D1C45436E
:101680001D4A54196368161C012901D0042912D17E
:10169000784332583018147D007A20431075A22206
:1016A00052001A602022042901D1196814E0196837
:1016B00091430A1C1EE0AA58247A107DA04310759D
:1016C000002902D08A1E012A12D8802252001A60F4
:1016D000022903D11A6803210A430BE003290AD126
:1016E0001A6802210A431A601A6801218A4301E03C
:1016F0000422FF321A60F0BD9458000072B60C4B01
:101700000C491A680C4B1B68096862B6480104D57D
:1017100032219142894149425B18FA2080004343BB
:101720000648821A06484243920D98187047C046F0
:1017300018E000E004ED00E0780B00207FBB000023
:101740005555010038B5041CFFF7D8FF051C002CC7
:101750000FD0FFF7D3FF074B401B984206D9013C3F
:10176000002C06D0FA239B00ED18F2E701F070FA86
:10177000EFE738BDE70300001D4B8022D20510B50E
:101780001A60802212061A601A4B002018601A494B
:101790001A4B1B4A1960282313601A4A1A4C13600B
:1017A0001A4A13601A4A13601A4A13601A4A1360DD
:1017B00009222260194C2060194C2160194C2360C9
:1017C000194C2360194C2260194C206019480160A3
:1017D00019490B6019490B60194B1A60FFF7BAFEE3
:1017E000C8204000FFF7AEFFFFF746FB10BDC04624
:1017F00000E100E004800340FFBF000008800340D8
:101800000C80034014800340008003401C80034090
:10181000248003402C800340348003400490034024
:10182000089003400C900340149003400090034044
:1018300004A0034008A003400CA0034014A00340F0
:1018400000A00340204B8022196852010A431A600D
:101850001E4A002313701E4A13701E4A13701E4A3C
:1018600013701E4A13701E4B1B78062B04D0072BD7
:1018700005D11C4A1C4B01E01A4A1C4B1A601C4B38
:101880001B78082B05D0142B07D1D1229200194BBD
:1018900002E0D122184B92001A60184BC204D20EFB
:1018A0001A70C0B2002258709A702C22DA70144B51
:1018B000144A19680A408021C9030A431A60124B6E
:1018C0008022D2011A60704734800440EC0B002063
:1018D000810B0020F40B0020ED0B0020800B00207A
:1018E00067FDFF1F1303000008C0044010C0044040
:1018F00068FDFF1F14C004400CC0044000C0064037
:101900000CE400E0FFFF00FF00E100E010B5174B22
:10191000132299789143032202400A43410701D5DB
:1019200010210A439A700F2210490240042A03D161
:101930008A79402422438A715A7910218A430842C5
:1019400000D00A435A71997910229143840600D538
:101950001143064A9971C10506D5537811782020A4
:10196000DBB201431170537010BDC04600C0064089
:1019700008B5124B1B68DA041ED5114B1B78DBB27D
:10198000002B02D001F064F9F7E70E4A8021C9016B
:1019900011600D4A0D49D3700422FF320A600C49D0
:1019A0000A600C4A13700C4A13700C4B1B68002B16
:1019B00002D00B4A12781A7108BDC0463480044028
:1019C000800B002080E100E000C0064008C0044019
:1019D0000CC00440EC0B0020810B00207C0B00208D
:1019E000AA0B002038B5041C0B4B1D78EDB2002D5E
:1019F000FAD1201C0121FFF73DFE291C201CFFF716
:101A000019FE0C225443054B054AE1581C1911607C
:101A1000044B227A1A7038BD800B002094580000C5
:101A2000F00B0020EB0B002030B5002901D0802303
:101A30001843154A1378141C984224D0134A12688C
:101A4000D5041FD57F221340082B04D0142B05D1B9
:101A500000220F4B01E00F4B00221A6044230029A3
:101A600000D060237F220240082A06D0142A09D120
:101A7000C02292001343064A03E0C022920013439F
:101A8000044A1360207030BD68FDFF1F348004409D
:101A900014C004400CC0044010B50F4A137898429B
:101AA00018D00E490968CC0413D5062B04D0072B97
:101AB00005D100210A4B01E00A4B002119600628DC
:101AC00004D0072805D10849054B01E00649054B1C
:101AD0001960107010BDC04667FDFF1F34800440C0
:101AE00008C0044010C004401303000038B50E4B7A
:101AF0001A680023D10414D50C4C1A2810D80C23D2
:101B000043430B4A0B4D9958D3181B7A216001218E
:101B10002B70FFF7AFFD23682A781A72012300E0CB
:101B20002360181C38BDC046348004407C0B002064
:101B300094580000AA0B002000207047F8B5214BF4
:101B4000071C1B68DA043BD51F4B1B68002B02D017
:101B50001E4A12781A711E4E00233478272201344F
:101B6000A2425B415B421C401A4D2B78A3421CD120
:101B700000F080F9402813DC174A13795BB2002B80
:101B8000F2DA2B780021013327209842494149425B
:101B90000B401249C95CDBB2C9B2D1712B70E3E7CB
:101BA000FF28E1DD01F054F8DEE70C4BFFB21F55D2
:101BB0000B4B01221A70084BE4B2AC223470DA707D
:101BC000F8BDC04634800440F00B0020EB0B002031
:101BD000F40B0020ED0B002000C00640820B00201B
:101BE000800B002038B5041C4518AC4204D0207886
:101BF000FFF7A4FF0134F8E738BDFFFF08B5044B39
:101C00001B78002B02D001F023F8F8E708BDC0468E
:101C1000800B0020064B074A1B781078DBB2C0B25D
:101C2000834201D3273000E00138C01A7047C04614
:101C3000F40B0020ED0B0020054B1878054BC0B2CB
:101C40001B78DBB2984200D24030C01A7047C046C1
:101C5000EC0B0020810B002010B5124B12491A78B2
:101C60000B78D2B2DBB29A4219D001333F24002064
:101C70009C424041404203400C48DCB2C05C0C70C6
:101C80000B49C0B2096800290BD09A4200D24032F9
:101C9000D31A1A2B05DC074B1B780B7201E00120CD
:101CA000404210BDEC0B0020810B0020AB0B00204C
:101CB0007C0B0020AA0B00200A4B1A780A4B1B78D9
:101CC000DBB29A420AD0013300223F2199425241AD
:101CD00052421340054AD05CC0B201E001204042AC
:101CE0007047C046EC0B0020810B0020AB0B00209E
:101CF000064B1A78064BD2B21A70064B1B68002BA3
:101D000002D0054A12781A727047C046810B002033
:101D1000EC0B00207C0B0020AA0B002030B52E4AD3
:101D20001379990624D52D49D4790B7800200133F5
:101D30003F259D424041404203402948E4B200789B
:101D4000834203D02748C454D8B208702649086893
:101D500000280DD025490978C9B28B4201D35B1AFE
:101D600001E05B1A4033272B02DD214B1B78037106
:101D7000D178194CC9B24BB2002B1ADA23795BB275
:101D8000002B16DA1B4B19481D780378DBB29D42F5
:101D900002D16C23E3700CE00133002427259D421F
:101DA000644164422340144CE45CDBB2E4B2D4717D
:101DB0000370402319420ED0117919420BD00F4BFA
:101DC000002119700E4B1B688B4202D00D49097817
:101DD00019722C23D37030BD00C00640EC0B0020DC
:101DE000810B0020AB0B00207C0B0020ED0B0020B2
:101DF000AA0B0020F40B0020820B0020800B002097
:101E0000F00B0020EB0B0020024B1A6801321A6025
:101E10007047C046780B002010B50B4C23685A035E
:101E200001D5FEF741FD23685A0501D5FFF732FBC6
:101E300023681A0501D500F039FA2368DA04ECD5D5
:101E4000FFF76CFFE9E7C0463480044008B5FFF7B0
:101E5000E3FFFFFF014B00221A607047008104403E
:101E60007047FFFF024A136818181060181C70476B
:101E70006CFDFF1FEFF31380002821D1EFF31082D8
:101E8000002A1FD1EFF30583002B0FD0101C0F2B5E
:101E90000ED91A1C103A92080B49032092000340F5
:101EA000521883401068D840C0B201E08020400042
:101EB000EFF31182002A05D0824203D2101C01E008
:101EC000012040427047C04600E400E0164B8022EB
:101ED000196812010A431A60144A00231370144A45
:101EE00014491370144A1370144A1370144A13706F
:101EF000144A1160144AD12189001160134AC104A7
:101F0000C90EC0B21170507093702C23D370104B57
:101F1000104A19680A408021C9010A431A600E4B11
:101F2000802292011A60704734800440680C0020BF
:101F3000FD0B002013030000700C0020690C002032
:101F4000FC0B00200CB0044010B0044000B0064070
:101F50000CE400E0FF00FFFF00E100E010B5174BCC
:101F6000132299789143032202400A43410701D585
:101F700010210A439A700F2210490240042A03D10B
:101F80008A79402422438A715A7910218A4308426F
:101F900000D00A435A71997910229143840600D5E2
:101FA0001143064A9971C10506D55378117820204E
:101FB000DBB201431170537010BDC04600B0064043
:101FC00008B5124B1B681A051ED5114B1B78DBB2E6
:101FD000002B02D000F03CFEF7E70E4A8021890179
:101FE00011600D4A0D49D3700422FF320A600C497A
:101FF0000A600C4A13700C4A13700C4B1B68002BC0
:1020000002D00B4A12781A7108BDC04634800440D1
:10201000FC0B002080E100E000B006400CB0044062
:1020200010B00440680C0020FD0B0020F80B0020CD
:10203000260C002038B5041C0B4B1D78EDB2002D8A
:10204000FAD1201C0121FFF715FB291C201CFFF7EA
:10205000F1FA0C225443054B054AE1581C19116052
:10206000044B227A1A7038BDFC0B002094580000F3
:102070006C0C0020670C00207047704738B50E4B81
:102080001A680023110514D50C4C1A2810D80C23FB
:1020900043430B4A0B4D9958D3181B7A21600121F9
:1020A0002B70FFF7E7FA23682A781A72012300E001
:1020B0002360181C38BDC04634800440F80B002053
:1020C00094580000260C002000207047F8B5214BE2
:1020D000071C1B681A053BD51F4B1B68002B02D041
:1020E0001E4A12781A711E4E0023347827220134BA
:1020F000A2425B415B421C401A4D2B78A3421CD18B
:10210000FFF7B8FE402813DC174A13795BB2002BA7
:10211000F2DA2B78002101332720984249414942C5
:102120000B401249C95CDBB2C9B2D1712B70E3E735
:10213000FF28E1DD00F08CFDDEE70C4BFFB21F5500
:102140000B4B01221A70084BE4B2AC223470DA70E7
:10215000F8BDC046348004406C0C0020670C0020A1
:10216000700C0020690C002000B00640FE0B00201F
:10217000FC0B002038B5041C4518AC4204D0207874
:10218000FFF7A4FF0134F8E738BDFFFF08B5044BA3
:102190001B78002B02D000F05BFDF8E708BDC046BD
:1021A000FC0B0020064B074A1B781078DBB2C0B24C
:1021B000834201D3273000E00138C01A7047C0467F
:1021C000700C0020690C0020054B1878054BC0B23C
:1021D0001B78DBB2984200D24030C01A7047C0462C
:1021E000680C0020FD0B002010B5124B12491A7824
:1021F0000B78D2B2DBB29A4219D001333F240020CF
:102200009C424041404203400C48DCB2C05C0C7030
:102210000B49C0B2096800290BD09A4200D2403263
:10222000D31A1A2B05DC074B1B780B7201E0012037
:10223000404210BD680C0020FD0B0020270C002040
:10224000F80B0020260C00200A4B1A780A4B1B784A
:10225000DBB29A420AD0013300223F219942524117
:1022600052421340054AD05CC0B201E00120404216
:102270007047C046680C0020FD0B0020270C002092
:10228000064B1A78064BD2B21A70064B1B68002B0D
:1022900002D0054A12781A727047C046FD0B002022
:1022A000680C0020F80B0020260C002030B5254AD1
:1022B0001379990612D52449D4790B78002001337B
:1022C0003F259D424041404203402048E4B200780F
:1022D000834203D01E48C454DBB20B70D178194C32
:1022E000C9B24BB2002B1ADA23795BB2002B16DA93
:1022F000184B19481D780378DBB29D4202D16C233C
:10230000E3700CE00133002427259D4264416442C0
:102310002340124CE45CDBB2E4B2D471037040237E
:1023200019420ED0117919420BD00D4B00211970B2
:102330000C4B1B688B4202D00B49097819722C2375
:10234000D37030BD00B00640680C0020FD0B0020AB
:10235000270C0020700C0020690C0020FE0B0020D0
:10236000FC0B00206C0C0020670C00201FB572B61F
:10237000154B70221A70154A41211170144A0F2111
:10238000117080221A701A7852B2002AFBDA114BAF
:10239000186862B6104B984201D80A23584301AC22
:1023A000211C0A22FFF71EF90023E15C0B4A0029D9
:1023B00005D058001018013341800A2BF5D10133A4
:1023C0005B0013701FBDC0460000024007000240C2
:1023D00006000240080002407F969800F8FDFF1FAB
:1023E00038B572B60B4C2568281C01F0E1FC0B28AF
:1023F00002D962B600200CE080231B06C3409D4337
:10240000256062B648235843034B18180023036025
:10241000436038BD10FEFF1F00FAFF1F10B5041CFB
:102420000E484821201A01F0D9FB0B2815D80C4B77
:102430001B78002B07D00B4B1B78002B03D0201CE4
:10244000FEF7BAF909E072B68022074B1206C240C5
:10245000101C1A681043186062B610BD00FAFF1F06
:10246000D60A0020DF0A002010FEFF1F38B5114CED
:102470002368002B0CD020684288531C8218157AE0
:102480000288934212D3FFF7C9FF002323600EE0B6
:10249000094B1B78002B02D10120404208E00320A9
:1024A000FEF75EF920600028E5D1F5E74380281C9F
:1024B00038BDC0467C0C0020DF0A002010B50D4C52
:1024C0002368002B03D02368002B0ED103E00A4BB6
:1024D0001B78002B02D10120404209E00320FEF7C7
:1024E0003FF920600028EED1F5E75A889B18187A4A
:1024F00010BDC0467C0C0020DF0A0020054B9888E8
:10250000054B1B68002B03D01A885B88D31AC018B0
:102510007047C046280D00207C0C002010B50A4BE7
:102520001B78002B0FD0094C2068002803D0FFF740
:1025300075FF002323600320FEF712F9002802D064
:10254000FFF76CFFF7E710BDDF0A00207C0C0020CE
:10255000F7B5304D0123071C0C1C2B70002C56D0F6
:102560002D4E3068002827D12C4A01922C4B1B7825
:10257000DBB2002B03D12B700120404249E0042044
:10258000FEF708F9072808D801232B70FFF728FF6A
:10259000214B186000280FD128700198214B013879
:1025A0000190002802D01A78002A02D001221A7065
:1025B000E2E700F04DFBD9E71A4B002231681A70B0
:1025C0004B884020C01A0094844200D90090181C07
:1025D000009A08309B1808184B800190A41A002319
:1025E0000098834204D0F85C019AD0540133F7E795
:1025F000FF184B883F2B06D940230B800420FEF7A1
:1026000015F900233360084B05221A70A6E72C70D9
:10261000201CFEBD720C0020740C00200975000007
:10262000DF0A0020780C0020710C002007B56B46F3
:10263000D8710733181C0121FFF78AFF0EBDFFFF79
:10264000F8B5124B1B78002B1ED0114F114B3C6874
:1026500001261E70104D002C09D000262E706388B4
:1026600004202380211CFEF7E1F83E6009E0FFF71B
:10267000B7FE011E04D004202C70FEF7D7F800E04E
:102680002E70044A00231370F8BDC046DF0A0020F4
:10269000740C0020720C0020710C002038B50E4B19
:1026A0001D78EDB2002D15D10C4C2168002906D003
:1026B0004B8804200B80FEF7B9F825600AE0FFF78D
:1026C0008FFE011E03D00420FEF7B0F802E0044B99
:1026D00001221A7038BDC046720C0020740C002014
:1026E000710C002070B5061C0D1C002433191979DB
:1026F000281C0022013400F06FF9042C05D02B684F
:10270000281C1B682E219847F0E7201C70BDFFFF96
:10271000034A044B08321A6000225A607047C046D0
:10272000305A0000840C002008B50368C9B21B6849
:10273000984708BD08B50368C9B21B68984708BD2B
:1027400008B50368C9B21B68984708BD08B5036897
:10275000C9B21B68984708BD08B50368C9B21B68B1
:10276000984708BD08B50368C9B21B68984708BDFB
:1027700008B50368C9B21B68984708BD08B5036867
:10278000C9B21B68984708BD08B5044B4808C01873
:1027900001F024FAFEF7C6FB08BDC046C0C62D00F6
:1027A00010B5064B4808C018141C01F017FAFEF7C4
:1027B000B9FB201CFEF72AFC10BDC046C0C62D0088
:1027C00008B5FEF755FC08BD08B5081CFEF78AFCE5
:1027D00008BD08B5081CFEF7FDFC08BD08B5081CBF
:1027E000111CFEF7A1FC08BD08B5081CFEF73AFD58
:1027F000431E9841C0B208BD08B5081CFEF758FD3D
:10280000431E9841C0B208BD08B5FEF7D1FD08BD12
:1028100008B5FEF70DFE08BD08B5FEF7D9FD08BDE9
:1028200008B5FEF7A7FD08BD08B5FEF71DFE08BDFB
:1028300008B5FEF7ABFD08BD08B5081CFEF73AFD6C
:10284000012008BD08B5081CFEF734FD012008BDB5
:1028500010B5081C141C111CFEF780FD201C10BDB7
:1028600038B5081C0D1C02F069FE041C211C281C34
:10287000FEF774FD201C38BD08B5044B4808C0188D
:1028800001F0ACF9FEF7DEFF08BDC04660E31600BC
:1028900010B5064B4808C018141C01F09FF9FEF74C
:1028A000D1FF201CFFF732F810BDC04660E31600D0
:1028B00008B5FFF75DF808BD08B5081CFFF792F8EA
:1028C00008BD08B5081CFFF7E7F808BD08B5081CE7
:1028D000111CFFF7A9F808BD08B5081CFFF706F999
:1028E000431E9841C0B208BD08B5081CFFF724F983
:1028F000431E9841C0B208BD08B5FFF79DF908BD59
:1029000008B5FFF7D9F908BD08B5FFF7A5F908BD67
:1029100008B5FFF773F908BD08B5FFF7E9F908BD79
:1029200008B5FFF777F908BD08B5081CFFF706F9E9
:10293000012008BD08B5081CFFF700F9012008BDFB
:1029400010B5081C141C111CFFF74CF9201C10BDFD
:1029500038B5081C0D1C02F0F1FD041C211C281CBC
:10296000FFF740F9201C38BD7047FFFF044B0022E1
:102970001A711A73FA21034A890099601A60704724
:102980008C0C0020485A000010B5041C00F0D0F94F
:10299000201C10BD08B5054800230370044980239E
:1029A000044A437302F0EEFA08BDC0469C0C0020B6
:1029B0008929000060FDFF1F7047FFFF044B0022C4
:1029C0001A711A73FA21034A890099601A607047D4
:1029D000B00C0020A85A0000F0B585B06B460E334D
:1029E0008EB2144C0D0C013666436C43A5B2370C05
:1029F000AE19F619250C2C19360CA5196D080A26E6
:102A00006E43891B30311C1C1970013B002D01D015
:102A1000291CE5E7211C002A03D01C1C2D224B1E7B
:102A20001A70036804A9E24352185B68211C984796
:102A300005B0F0BD3333000008B5FFF75FFD08BDFA
:102A400008B5FFF713FD08BD08B5FFF737FD08BD52
:102A500008B5FFF7F5FD08BD08B5FFF75FFD08BD38
:102A600008B5081CFFF7E2FD08BD08B5081C111CDD
:102A7000FFF76EFD08BD7047044B00221A711A73F0
:102A8000FA21034A890099601A607047C00C00203F
:102A9000085B000008B50368C9B21B68984708BD09
:102AA00008B50368C9B21B68984708BD08B5036834
:102AB000C9B21B68984708BD08B50368C9B21B684E
:102AC000984708BD08B5044B4808C01801F086F8BF
:102AD000FFF7FCF908BDC04660E3160010B5064BD1
:102AE0004808C018141C01F079F8FFF7EFF9201C12
:102AF000FFF734FA10BDC04660E3160008B5FFF7D3
:102B00005FFA08BD08B5081CFFF794FA08BD08B5C0
:102B1000081CFFF7B2FA08BD08B5081C111CFFF726
:102B2000ABFA08BD08B5081CFFF7A8FA431E984188
:102B3000C0B208BD08B5081CFFF7C6FA431E98418D
:102B4000C0B208BD08B5FFF73FFB08BD08B5FFF7E9
:102B50007BFB08BD08B5FFF747FB08BD08B5FFF7CD
:102B600015FB08BD08B5FFF78BFB08BD08B5FFF7DF
:102B700019FB08BD08B5081CFFF7A8FA012008BD1D
:102B800008B5081CFFF7A2FA012008BD10B5081C03
:102B9000141C111CFFF7EEFA201C10BD38B5081CE0
:102BA0000D1C02F0CBFC041C211C281CFFF7E2FAD0
:102BB000201C38BD7047FFFF044B00221A711A73A6
:102BC000FA21034A890099601A607047D00C0020EE
:102BD000305B0000F8B5184B8022196852040A4394
:102BE0001A60164B01211A68154D0A431A60154BDD
:102BF0002E681C68002C12D0237A002B0DD023687D
:102C0000201C1B682F6898472A68E188D21B12098C
:102C100093B2A3808A4200D9E3806469EAE7296815
:102C2000094B891B09098AB21A80084B188881420E
:102C300000D91A80F8BDC046FCED00E0001000E0AD
:102C4000041000E0E00C0020E60C0020E40C002062
:102C500010B5104C2378002B1BD101232370FFF7F4
:102C60004DFC002801D0FFF706FFFEF7A1FB00286E
:102C700001D0FFF7A1FEFFF7A7FA002801D0FFF768
:102C800099FFFEF7D9FF002801D0FFF76DFE002362
:102C9000237010BDE80C002008B50B4B1A68002A01
:102CA00004D001221A60094B1B689847084B1B7817
:102CB000002B08D0074B1A68002A04D001221A60A2
:102CC000024B5B68984708BD0C710340EC0C002078
:102CD000EB0C00201C710340054B01221A60054BD0
:102CE000054A19680A401A60044B00221A7070479E
:102CF000007003403C800440FFFF7FFFEB0C00208E
:102D000008B5836800221A608021074BC903196047
:102D10004178064B5A541A78002A04D15B78002B6C
:102D200001D1FFF7D9FF08BD80E100E0E90C0020E8
:102D3000037810B5041C002B01D0FFF7E1FF00233E
:102D4000237010BD08B543001B0E7F3B162B0DDC16
:102D5000002B0FDB094A1A41131C024206D0021C49
:102D60009A430A60111C01F0ADFB02E00860C00F3D
:102D7000C00708BDC30FDB070B60FAE7FFFF7F004A
:102D800000B51D4A430083B0011C5B08934219DD66
:102D90001A4A934203DD01F095FB03B000BD69467A
:102DA00000F02EF803231840012819D002280ED075
:102DB00000281AD00098019900F09EF980231B0684
:102DC000C018EAE70021002200F0BEFDE5E7009808
:102DD0000199012200F0B8FD80231B06C018DCE732
:102DE0000199009800F088F9D7E70098019901222D
:102DF00000F0AAFDD1E7C046D80F493FFFFF7F7F13
:102E0000F0B556464D4644465F46F0B4420056087B
:102E1000AB4A89B0031C0C1C051C964268DDA94A0C
:102E200096421ADCA849002B00DCFEE001F04AFBC8
:102E30000F23321C9A43A54B051C9A426AD0A44921
:102E400001F040FB011C2060281C01F03BFBA04965
:102E500001F038FB606001204EE09E4A96426BDD37
:102E60009D4A96424FDCF715863FFB05F61A301C4B
:102E700001F09EFC01F0BCFC011C0590301C01F02F
:102E800021FB8721C90501F0F3F9804601F090FC90
:102E900001F0AEFC061C0690311C404601F012FB0E
:102EA0008721C90501F0E4F90021079000F052FFE5
:102EB000002800D1D3E0301C002100F04BFF431E5E
:102EC000984102231B1A02220092844A05A801920B
:102ED000211C3A1C00F0D8F9002D0DDA226880215F
:102EE000090653186268236053186360404203E088
:102EF000002320604B60002009B03CBC90469946FE
:102F0000A246AB46F0BD191C01F0DCFA60602060FF
:102F10000020F1E7724901F0D5FA7249051C01F071
:102F2000D1FA011C2060281C01F0CCFA6D4901F097
:102F3000C9FA60600120DFE700F080FD6A49804641
:102F400001F096F9FC21890500F068FF01F030FCE2
:102F5000071C01F04DFC5C49814601F089F9011C18
:102F6000404601F0AFFA5A498046484601F080F9E0
:102F7000824640461F2F22DCFF23321C9A43791ED3
:102F80005A4B8900CB589A4219D0514601F09AFA0F
:102F9000834620605946404601F094FA514601F0BC
:102FA00091FA031C6060381C002DA5DA8021090607
:102FB0000E1C5E445B182660636078429CE75146B5
:102FC00001F080FAFF22C30DF615134083460296E6
:102FD000F31A082B41DD4249484601F049F9061C25
:102FE000311C404601F06EFA03900399404601F00F
:102FF00069FA311C01F066FA3A49061C484601F0AC
:1030000037F9311C01F05EFA82465146039801F00F
:1030100059FAFF22C30D029913408346CB1A192B8C
:1030200032DC039B20609846B4E700F0F7FE0F23E4
:10303000321C9A43254B051C9A4212D0244900F0B9
:10304000EDFE011C2060281C01F03CFA204900F034
:10305000E5FE6060012040424EE720609AE70323CE
:1030600031E71F4900F0DAFE1E49051C00F0D6FECC
:10307000011C2060281C01F025FA1A4900F0CEFE40
:1030800060600120404237E71949484601F0F0F8F6
:10309000061C311C039801F015FA8046414603983E
:1030A00001F010FA311C01F00DFA1249061C4846D5
:1030B00001F0DEF8311C01F005FA8246404664E773
:1030C000D80F493FE3CB1640800FC93FD00FC93F0F
:1030D00043443537800F4943FFFF7F7F085C000082
:1030E0000044353708A3852E84F9223F885B000011
:1030F00000A3852E32318D24F8B54F464646574BF6
:10310000C0B44600051C0F1C76089E4248DC01F046
:103110004FFB002800D19EE0291C281C01F0A8F8D4
:103120004F49041C01F0A4F84E4900F077FE211C21
:1031300001F09EF84C4901F0C5F9211C01F098F806
:103140004A4900F06BFE211C01F092F8484901F059
:10315000B9F9211C01F08CF8464900F05FFE211CF2
:1031600001F086F88046FC21201C890501F080F8DA
:103170004146061C201C01F07BF8391C041C281C4D
:1031800001F076F8011C201C01F09CF9011C301C98
:1031900001F098F9011CFE20800501F093F952E03E
:1031A000291C01F065F82E49041C01F061F82D4935
:1031B00000F034FE211C01F05BF82B4901F082F98C
:1031C000211C01F055F8294900F028FE211C01F0CE
:1031D0004FF8274901F076F9211C01F049F82549FB
:1031E00000F01CFE211C01F043F8234B80469E4258
:1031F000B9DD224B9E422ADCFF231B06F618FE2077
:103200008005311C01F05EF98146FC21201C8905F6
:1032100001F02EF8311C01F055F94146061C201C26
:1032200001F026F8391C041C281C01F021F8011CAF
:10323000201C01F047F9011C301C01F043F9011C6E
:10324000484601F03FF90CBC90469946F8BD0C4B3E
:103250000C4E9946D9E7FE208005F4E7FFFFFF31C9
:103260004ED747ADF6740F317CF29334010DD03751
:10327000610BB63AABAA2A3D9999993E0000483FA6
:103280000000383F0000903EF0B556464D4644469B
:103290005F46F0B4DFB0689C0C93C14B0A91A1006B
:1032A000C958D31E0791D917490F0C9CCB18DB10B6
:1032B0000B93013C0494DB430B9CDB171C408246C0
:1032C0000498E3430B94DB00251A079C9B18069394
:1032D000071919D4699CAB00E4187F19A04601377F
:1032E000002622AC08E04146885901F081FA0135F8
:1032F000A0510436BD4207D0002DF4DA002001357C
:10330000A0510436BD42F7D1079C002C00DAFCE244
:10331000079B0C9C0133A7009B005EA89846C3192D
:10332000F43B00214AAC99463B1C8B465746089417
:103330009A46049C002C00DA1EE24D465D440024AF
:1033400000262968385900F093FF011C301C00F05A
:1033500065FD0434061C043D5445F2D1089C04214B
:1033600058468B442650C345E3D15346BA461F1CEA
:10337000079C0798A3000DACE418B8460D9483464B
:1033800057465C460898A4005946039404590029FE
:1033900026DD5D460EAE013D039AAD00B2464519ED
:1033A0009244B946EE218905201C00F061FF01F02E
:1033B000FFF901F01DFA8721C905071C00F058FF2D
:1033C000011C201C01F07EF801F0F2F9296801C609
:1033D000381C00F023FD043D041C5645E2D14F4645
:1033E000201C069900F07AFBF8218905041C00F0E6
:1033F0003FFF00F027FB8221C90500F039FF011CC7
:10340000201C01F05FF8041C01F0D2F9061C01F049
:10341000EFF9011C201C01F055F8069C051C002C3E
:1034200000DC8BE15A46013A92000EA8835808212D
:10343000091B181C0841361888401B1A0EA98B500E
:103440000722121B13410593059C002C33DD5846BF
:103450000136002800DCA0E1039C80220EAB520064
:103460001919FF200024944608E0002A03D064467E
:10347000A21A1A60012404338B4208D01A68002C67
:10348000F3D0821A1A60043301248B42F6D10698D5
:1034900000280DDD012800D15BE1022808D15B4640
:1034A000013B9B000EA9C9583F220A400EA8C250FA
:1034B0000599022976D0281C002100F04BFC002839
:1034C00000D189E05946079C01398C420CDC0EA8DA
:1034D0008D0043190D9800221C68043B224383424F
:1034E000FAD1002A00D0F5E1079B0EA8013B9B0012
:1034F000C358002B00D006E2079B0122023B9B0031
:10350000C318043B596801320029FAD05B465A447B
:103510000133099293423DDC089C58469B00E41815
:103520000B99131A9B0005930B1C5B44A246699CE4
:103530009B000C98E3180393031C5B449B0022A997
:10354000C91800228B469146039C231C4B445868A3
:1035500001F04EF95946049C49440860002C1CDBDC
:103560000D1C002400262968385900F081FE011C3A
:10357000301C00F053FC0434061C043D4445F2D1D9
:10358000514604310422059C8A469144043940C1C5
:10359000A145D9D109988346F3E60026F0E7C04655
:1035A000205F0000FE20291C800500F08BFF051C19
:1035B000002C00D17FE7FE200699800500F08EFAEE
:1035C000011C281C00F07EFF051C281C002100F0B7
:1035D000C1FB002800D075E7069C281C614200F062
:1035E0007DFA8721C905D946051CB34600F0D6FBF4
:1035F000002800D18EE1EE218905281C00F038FE5C
:1036000001F0D6F801F0F4F88721C905041C00F098
:103610002FFE011C281C00F055FF01F0C9F8039A89
:103620000EA9885006984B46083001330690201C9E
:103630009D00039301F0BCF80EA94851FE208005BF
:10364000069900F04BFA039C051C002C4EDBA246A9
:103650000120A3008244089C5146E4188F000EAA62
:103660007F42D618A146B8460024371C4E4638592A
:1036700001F0BEF8291C00F0FBFDEE213051890558
:10368000281C00F0F5FD043C051C4445EFD136AC88
:10369000079A594600200494AA4CB14680460691E8
:1036A000934658460027002813DB002600270025F4
:1036B00002E0043645450CDC4B469959A05900F010
:1036C000D7FD011C381C00F0A9FB0135071CAB45D8
:1036D000EFDA404604998300CF50012204235B4275
:1036E00090449944C245DCD106998B46689C022CD3
:1036F00000DD87E0002C52DC16D1039C002C00DAA0
:103700001EE136A8A400041935AD00202168043C50
:1037100000F084FBAC42F9D1059C002C02D0802142
:10372000090640180A9C20605946072008405FB0EF
:103730003CBC90469946A246AB46F0BD069C002C88
:1037400011D15B46013B9B000EA8C3581B12059389
:103750007AE65B46013B9B000EA9C9587F220A40CE
:103760000EA8C250A4E6FC21890500F017FB002832
:103770000CD1002405949EE6089C0421584600269E
:103780008B442650C34500D0D3E5EEE502245846CD
:1037900005940136002800DD5EE6002477E6039CF0
:1037A0000021002C0DDB039C36A8A3000021C418C7
:1037B00035AD081C2168043C00F030FBAC42F9D167
:1037C000011C059C0B1C002C02D0802000060B184D
:1037D0000A9C3698236000F075FE039C002C08DDDF
:1037E000039937AC8D00651902CC00F017FBAC4291
:1037F000FAD1059C002C02D08021090640180A9CB1
:10380000606091E7689C032C00D08DE7039C002C3E
:1038100000DC91E036AC0494039B039C013BA500C3
:10382000049C9B00675935A8E418A1468046261CD5
:10383000AA4600E0271C3568391C281C00F0EEFA67
:10384000041C211C281C00F03DFE391C00F0E6FA87
:10385000043EB06074604645ECD1039C55460020A0
:10386000012C24DD049C4E466759D04600E0271CFD
:103870003568391C281C00F0D1FA041C211C281CB6
:1038800000F020FE391C00F0C9FA70600498346022
:10389000043EB042EBD1049C4546261C6519043613
:1038A00000202968043D00F0B9FAB542F9D1059C21
:1038B000002C38D0369A8024240613190A9C8021C3
:1038C0002360049C090663680A9C5B1840186360C7
:1038D000A06029E7069C0EA84359083CB346039113
:1038E0000694002B00D0A9E60A1C013A9300C318E5
:1038F000211C00E0013A043B5C6803920839002C6B
:10390000F8D006919AE6012200E60C9CA7004AAC8A
:1039100008942DE5281C00F04BFF039C0EAA1051C3
:103920004C4603948AE636990A9C2160049C0A99C5
:10393000646888604C60F7E636AC00200494B6E713
:103940000020E9E62C5F0000F8B5354B4F464646AF
:103950004500C0B4041C0F1C90466D089D4205DC58
:1039600000F026FF031C201C002B46D0211C201C2D
:1039700000F07EFC211C051C00F07AFC2949061C85
:10398000281C00F075FC284900F09CFD291C00F063
:103990006FFC264900F042FA291C00F069FC24491A
:1039A00000F090FD291C00F063FC224900F036FA7B
:1039B00043468146002B24D0FC218905381C00F0A9
:1039C00057FC49468046301C00F052FC011C404622
:1039D00000F078FD291C00F04BFC391C00F072FD52
:1039E0001549051C301C00F043FC011C281C00F08C
:1039F00015FA011C201C00F065FD0CBC9046994690
:103A0000F8BD4946281C00F033FC0B4900F05AFD74
:103A1000311C00F02DFC211C00F000FAEDE7C0463F
:103A2000FFFFFF31D3C92E2F342FD7321BEF38368B
:103A3000010D50398988083CABAA2A3E4000400855
:103A40007047C046F0B54300474680B45F081B0E80
:103A50001E1C7F3E041C162E17DC8046002E1DDB2C
:103A60001A4F051C374107420BD0194900F0D6F90F
:103A7000002100F089F9002803D0002C1CDB45460A
:103A8000BD43281C04BC9046F0BD124B051C9F4250
:103A9000F7D9211C00F0C2F9051CF2E70C4900F02F
:103AA000BDF9002100F070F9002803D0002C09DBDB
:103AB0000025E6E7251CE4E780231B0433411E199B
:103AC000B046DCE7002FF5D0034DDAE7FFFF7F00BB
:103AD000CAF24971FFFF7F7F000080BF70B5031CF1
:103AE0004400061C0D1C60081A1C00280FD0274932
:103AF00088420ED8264A904211D9240E6419FE2C11
:103B00002ADC002C19DD234BE2051E403243101C39
:103B100070BD181C191C00F081F9021CF7E79821F0
:103B2000181CC90500F0A4FB1B4A031C95421CDBB2
:103B30004400240E061C193CE0E7221C163219DA58
:103B4000164A954208DC191C154800F02DF8144956
:103B500000F08EFB021CDAE7191C124800F024F872
:103B6000104900F085FB021CD1E70D4900F080FBF5
:103B7000021CCCE7074A201C19301640C005CC2196
:103B80003043890500F074FB021CC0E7FFFF7F7F14
:103B9000FFFF7F00FFFF7F80B03CFFFF50C30000AE
:103BA0006042A20DCAF249714000C90FC90740081E
:103BB0000843704702B4714649084900095C49004E
:103BC0008E4402BC7047C04603B4714649084000A9
:103BD0004900095A49008E4403BC7047002934D07B
:103BE0000123002210B488422CD301242407A142CF
:103BF00004D2814202D209011B01F8E7E400A1428C
:103C000004D2814202D249005B00F8E7884201D326
:103C1000401A1A434C08A04202D3001B5C082243FE
:103C20008C08A04202D3001B9C082243CC08A0426F
:103C300002D3001BDC082243002803D01B0901D05B
:103C40000909E3E7101C10BC7047002801D00020D0
:103C5000C04307B4024802A14018029003BDC04609
:103C6000D90000000029F0D003B5FFF7B9FF0EBC62
:103C70004243891A1847C046002941D010B4041C99
:103C80004C40A44601230022002900D549420028C7
:103C900000D5404288422CD301242407A14204D2FB
:103CA000814202D209011B01F8E7E400A14204D2DB
:103CB000814202D249005B00F8E7884201D3401AF2
:103CC0001A434C08A04202D3001B5C0822438C0814
:103CD000A04202D3001B9C082243CC08A04202D37E
:103CE000001BDC082243002803D01B0901D009096E
:103CF000E3E7101C6446002C00D5404210BC70471E
:103D0000002806D003DB0020C043400801E08020EB
:103D1000000607B4024802A14018029003BDC04645
:103D2000190000000029EBD003B5FFF7A7FF0EBC78
:103D30004243891A1847C0467047C0468446081C4B
:103D40006146FFE71FB500F047FA002801D40021C3
:103D5000C8421FBD10B500F0CDF94042013010BD82
:103D600010B500F039FA002801DB002010BD012059
:103D700010BDC04610B500F02FFA002801DD00206C
:103D800010BD012010BDC04610B500F0DDF90028BF
:103D900001DC002010BD012010BDC04610B500F0B0
:103DA000D3F9002801DA002010BD012010BDC04663
:103DB0001C2101231B04984201D3000C10391B0A5B
:103DC000984201D3000A08391B09984201D300091F
:103DD000043902A2105C40187047C0460403020276
:103DE0000101010100000000000000009E2110B54B
:103DF000C905041CFFF7D2FF002803D1201C00F0E6
:103E0000D7FC10BD9E21C905201C00F05BFB00F013
:103E1000CFFC80231B06C018F3E7C046F8B5430269
:103E20004400C50F4E024800240E2A1C9B09000EB8
:103E3000C90FB6098D425BD0221A002A00DC89E046
:103E400000281DD1002E00D075E0580704D00F22A5
:103E50001A40042A00D004338021C90419402A1CC6
:103E600000293AD00134FF2C00D17FE09B015B0A8E
:103E70005B02E4B2E405580AD20720431043F8BDC0
:103E8000FF2CE2D08021C9040E431B2A00DD2DE166
:103E9000311C2020D140821A9640721E96410E435A
:103EA0009B1B5801D1D59B019F09381CFFF780FF50
:103EB000421F974094425BDC141B1F231B1B3A1CC0
:103EC0009F40611C3B1CCA405F1EBB411343002442
:103ED000BBE7131EB9D100230022DB08FF2C04D15D
:103EE000002B43D08020C00303435B025B0ABFE783
:103EF000211A002940DD002823D0FF2CA5D08020E6
:103F0000C00406431B2900DDEEE0301C2027C8401A
:103F1000791A8E40711E8E4106439B19590100D4B7
:103F200093E70134FF2C55D0714901221A400B4010
:103F30005B08134389E7013A002AB1D0FF2CA4D1D2
:103F400083E7002E00D180E701390029E5D0FF2C5E
:103F5000D8D17AE7002A1BD1621CD2B2012A4BDDEC
:103F60009F1B7A0123D5F71A0D1C9EE700237FE7DC
:103F70005F4BA41A3B4068E7002946D1611CC8B2D8
:103F8000012829DDFF2924D0F3185B080C1C5CE70D
:103F9000002C13D0FF2818D08024E404524223437D
:103FA0001B2A4DDD0123F31A041C0D1C79E7002F99
:103FB00000D07AE70023002200248EE7002B3BD0BC
:103FC000D243002AEFD0FF28EAD1331CFF240D1C76
:103FD0003BE7FF24002380E7002C5CD1002B00D1BD
:103FE00080E0002E00D130E79B19580100D42CE767
:103FF0003F4A0124134028E7002C15D1002B40D163
:10400000002E63D0331C0D1C1FE7002C21D1002B88
:1040100054D0C943002904D0FF284CD01B2958DDB7
:1040200001239B19041C79E7002B19D1002E48D0DD
:10403000331C0D1CFF2408E7331C041C0D1C04E773
:104040001C1C2025D440AA1A93405A1E9341234396
:10405000A9E7FF282FD08024E40449422343DDE769
:10406000FF24002E00D1F0E68022DB08D2031342A9
:1040700004D0F608164201D1331C0D1CDB00FF24CE
:10408000E3E6002E00D1E0E69A1B500100D420E7C1
:10409000F31A0D1CD9E6002B0DD0FF24002E00D101
:1040A000D3E68022DB08D2031342E7D0F60816429B
:1040B000E4D1331CE2E7331CFF24C6E6331C041CA6
:1040C000C3E6802300229B04FF2406E7231C002272
:1040D00003E71C1C2027CC40791A8B40591E8B41CA
:1040E00023439EE7331CB0E6012616E70126D7E6F8
:1040F000FFFFFFFB4A02430270B55C0A550A43000A
:104100004A001B0EC60F120EC90FFF2B05D0FF2A47
:1041100008D0012093420BD070BD0120002CFBD1B0
:10412000FF2AF6D10120002DF6D101209342F3D1D0
:10413000AC42F1D18E4205D0002BEDD1201C441EA3
:10414000A041E9E70020E7E74A024302F0B55C0A34
:10415000550A43004A001B0EC60F120EC90FFF2B53
:1041600031D0FF2A34D0002B16D160426041844602
:10417000002A14D0002820D18E4217D1934215DC9A
:1041800004DBAC4212D80020AC4212D27042704123
:104190004042012318430CE0002AEDD194466F42BF
:1041A0006F416046002805D1002FE5D07042012301
:1041B0001843F0BD0020002FFBD148424841404247
:1041C00001231843F5E7002CCBD002204042F0E752
:1041D000002DC8D0F9E7C0464A024302F0B55C0A98
:1041E000550A43004A001B0EC60F120EC90FFF2BC3
:1041F00027D0FF2A29D0002B10D0002A15D19446B1
:104200006F426F416046002815D00020002F04D176
:1042100048424841404201231843F0BD604260419A
:104220008446002AECD00028F2D18E4211D0704290
:1042300001231843F1E7002FF7D070420123184300
:10424000EBE70220002CE8D1D3E70220002DE4D1D7
:10425000D1E79342EBDC04DBAC42E8D80020AC426F
:10426000DBD270427041404201231843D5E7C0467B
:10427000F0B55F4656464D464446F0B4440246000B
:1042800083B00F1C640A360EC50F002E41D0FF2EDE
:1042900022D080231B0400201C43E4007F3E824682
:1042A0008046391C4B007F02C90F7F0A1B0E8B46CC
:1042B0003BD0FF2B34D0802212041743FF007F3BFA
:1042C00000215A466A40019252460A430F2A63D897
:1042D0007A48920082589746002C3FD10822022348
:1042E00092469846DDE70195404602282AD1019A78
:1042F00001251540FF2300246402DB05600AED0759
:104300001843284303B03CBC90469946A246AB46AE
:10431000F0BD002C27D10420012282469046C0E740
:10432000391C4A1E91410231CBE70121002FC8D030
:10433000381CFFF73DFD431F9F4076235B421B1A4D
:104340000021BEE7032800D1AEE001284FD101983B
:1043500042461040C5B200230024CDE70C230320C1
:104360009A4680469DE7201CFFF722FD7626431FD4
:104370009C4076420023361A9A46984691E780245C
:104380000025E403FF23B7E75B463C1C0193884606
:10439000AAE73C1C8846A7E7250C24043A0C240C09
:1043A0003F04F6183F0C211C231C794353436F43F1
:1043B0005543FB180A0C9B18B1469F4202D9802234
:1043C0005202AD1809041A04090C521894011B0C6E
:1043D000611E8C41920EED181443AD012C43230154
:1043E00005D5012263080120144081441C434B463B
:1043F0007F33002B2DDD600704D00F222240042ADA
:1044000000D00434220103D52D4B1C404B46803391
:10441000FE2B17DD019B01251D400024FF236BE7C8
:104420008020C003044208D0074206D1041C3C434C
:104430006402640A5D46FF235EE704436402640A83
:10444000FF2359E70198A4010125640ADBB2054066
:1044500052E77E235B424A469B1A1B2B05DD019BDC
:1044600001251D400024002346E7221CDA404B466C
:104470009E339C40231C5C1EA3411343580704D069
:104480000F221A40042A00D004335A0105D5019B9B
:1044900001251D40002401232EE701989C010125E0
:1044A000640A0540002327E78027FF03019B3C4364
:1044B000640201251D40640AFF231DE7585F0000C8
:1044C000FFFFFFF7F8B5C20F430244004D0248005A
:1044D000240E161C9B09000EC90FAD09FF2800D140
:1044E00083E0012779408A425CD0221A002A00DC4E
:1044F0008EE000281ED1002D00D07AE0580704D0AD
:104500000F221A40042A00D004338021C90401225A
:104510001940324000293AD00134FF2C00D183E009
:104520009B015B0A5B02E4B2E405580AD207204310
:104530001043F8BDFF2CE1D08021C9040D431B2A94
:1045400000DD31E1291C2020D140821A95406A1EED
:1045500095410D435B1B5801D0D59B019F09381C29
:10456000FFF726FC421F974094425FDC141B1F2379
:104570001B1B3A1C9F40611C3B1CCA405F1EBB4179
:1045800013430024BAE7131EB8D100230022DB082E
:10459000FF2C04D1002B47D08020C00303435B02D3
:1045A0005B0ABFE7211A002944DD002827D0FF2C31
:1045B000A4D08020C00405431B2900DDF2E0281CA4
:1045C0002027C840791A8D40691E8D4105435B192B
:1045D000590100D492E70134FF2C59D073490122CC
:1045E0001A400B405B08134388E7002D00D07AE7A0
:1045F00077E7013A002AADD0FF2CA0D17EE7002D4D
:1046000000D17BE701390029E1D0FF2CD4D175E737
:10461000002A1BD1621CD2B2012A4BDD5F1B7A013A
:1046200023D5EF1A0E1C9AE700237BE75F4BA41AF1
:104630003B4063E7002946D1611CC8B2012829DD4F
:10464000FF2924D0EB185B080C1C57E7002C13D073
:10465000FF2818D08024E404524223431B2A4DDD56
:104660000123EB1A041C0E1C75E7002F00D076E71F
:104670000023002200248AE7002B3BD0D243002AEB
:10468000EFD0FF28EAD12B1CFF240E1C36E7FF24B5
:1046900000237CE7002C5CD1002B00D180E0002DB2
:1046A00000D12BE75B19580100D427E73F4A0124CA
:1046B000134023E7002C15D1002B40D1002D63D0EF
:1046C0002B1C0E1C1AE7002C21D1002B54D0C943FF
:1046D000002904D0FF284CD01B2958DD01235B1989
:1046E000041C75E7002B19D1002D48D02B1C0E1C83
:1046F000FF2403E72B1C041C0E1CFFE61C1C2026B9
:10470000D440B21A93405A1E93412343A9E7FF288D
:104710002FD08024E40449422343DDE7FF24002D09
:1047200000D1EBE68022DB08D203134204D0ED086F
:10473000154201D12B1C0E1CDB00FF24DEE6002DF0
:1047400000D1DBE65A1B500100D41CE7EB1A0E1C0B
:10475000D4E6002B0DD0FF24002D00D1CEE6802220
:10476000DB08D2031342E7D0ED081542E4D12B1C3D
:10477000E2E72B1CFF24C1E62B1C041CBEE68023B1
:1047800000229B04FF2402E7231C0022FFE61C1CDE
:104790002027CC40791A8B40591E8B4123439EE73A
:1047A0002B1CABE6012512E70125D3E6FFFFFFFB3B
:1047B0004302590A4300C20F1B0E00207E2B0DDD61
:1047C0009D2B0CDC802000040143952B0ADC9620F5
:1047D000C31AD9404842002A00D1081C7047034B35
:1047E000D018FBE7963B9940F4E7C046FFFFFF7FF8
:1047F00070B5041E3CD0C60F00D04442201CFFF709
:10480000D7FA9E23251C1B1A962B0CDC08388440F3
:104810006402640ADBB2321C6402DB05600AD20760
:104820001843104370BD992B0ADD0522121A211C72
:10483000D1400A1C011C1B318D40691E8D4115435E
:10484000052801DD421F9540164C2C406A0704D014
:104850000F221540042D00D0043461010CD59F2394
:10486000181AFF281AD0A401640AC3B2321CD3E775
:10487000002200230024CFE7E408FF2B04D06402C9
:10488000640ADBB2321CC7E7002C04D08020C003CE
:1048900004436402640A321CFF23BDE7321CFF2379
:1048A0000024B9E7FFFFFFFBF0B5564644465F46DC
:1048B0004D46F0B41F1C0B031B0B9A464B0087B0F0
:1048C000041C80465B0DC80F161C02938146002B0A
:1048D00068D0694B0299994232D0802253465203E4
:1048E0001A43D200630F1A439246644AE0008918C3
:1048F00080460291002400253B031B0B9B46780059
:10490000FB0F321C400D039300D175E05A4B9842C7
:1049100069D08022594652030A43730FD2001A43CA
:10492000564B9346C018F200002303994E4671403F
:104930001C430F2C00D9A9E0514EA4003459A746BE
:1049400053461C4300D087E00025AA46A846082409
:104950000225D1E74946022D6CD0032D00D117E284
:10496000012D00D058E10D40EDB20024A9460023EE
:10497000A0460020002125030A0D1C052D0B120561
:10498000404B2A43134023435B004C465B08E2073D
:10499000191C4046114307B03CBC90469946A246BC
:1049A000AB46F0BD5346234350D05346002B00D1B5
:1049B00084E15046FFF7FCF9031E272B00DD76E16A
:1049C00028210D1A211C083B5246E9409A400D1C33
:1049D0001543221C9A40AA4690462B4B00241B1AD2
:1049E0000293002588E75B461E430323002E9CD1DB
:1049F000B3460022022398E75B46334321D0584652
:104A0000002800D14EE1FFF7D3F9272800DD42E16D
:104A100028210F1A021C311C083A5B46F9409340CA
:104A20000F1C1F43331C9340BB461A1C164B181A0D
:104A300000237AE701230B4000249946A0460E4B41
:104A400097E70027BB46002201236EE700210424DC
:104A50008A46884601254FE70C2403254CE70025AC
:104A60008024A9462403A846034B82E7DA469046F1
:104A700003991D1C6FE7C046FF07000001FCFFFF04
:104A8000985F0000FFFF0F800DFCFFFF029F160CD8
:104A9000381804904046070C0004000C1204120C55
:104AA000031C5343041C3D1C7443554398463B1C54
:104AB00073436419A44644460293230C63449D4205
:104AC00004D9029D802464022D1902951D0C0395C2
:104AD00045462C041B04240C1C1905945C46230C2D
:104AE000051C58432404240C8446381C6043654349
:104AF0005F438146CC44280C6044BB46814502D9C3
:104B000080277F02BB442D04070C2D0C00044019A4
:104B10005546BC462F04E3448446280C3D0C2F1C0C
:104B20005743B8462F1C77434243B94647463F0C8C
:104B30009144BA46D14446434A4502D980225202A2
:104B4000B6184F463A0CB6183A0447463F043F0C95
:104B5000B8462F1C67435D43444358436519019091
:104B6000380C2D184244B846AC4204D90198802331
:104B70005B02C0180190039C029F201C6044C01976
:104B80006045A44147466442A4462B043C04994630
:104B9000240C4C44A046D8448018C246E2449042BB
:104BA0009241574652429146F219E245BF417F4237
:104BB0004B46BC46D845BF41D4187F4263461F438D
:104BC0002D0C7F19B24292414C45AD4152426D428B
:104BD0001543019E7D19AB19E20D5B02059F13433E
:104BE00042023A439A46531E9A41C30D101C184381
:104BF0006402204380465046C0010DD5454601223F
:104C00005646049C6B082A401A43F30701341A43A2
:104C1000760804949046B246049E634FF319002B25
:104C200061DD404640070BD00F2244462240042A53
:104C300006D042460432424580414042824490467A
:104C40005546ED0107D5594B5646049F80201E401E
:104C5000C000B2463B18564A934200DDEAE644469D
:104C60005546E2086807104301226C025B050A40C2
:104C70008046240B5B0D91467BE6DA4690461D1C70
:104C800069E680242403574627421CD13C43240371
:104C9000240B484B6DE6031C283B311C99408B4686
:104CA0000022C3E6301CFFF783F82030ADE6283B36
:104CB000211C994000228A4690468EE6201CFFF770
:104CC00077F8203078E65846204207D1044303990C
:104CD0002403240B89469046364B4AE63C43240382
:104CE000240B344B45E6344B049E9B1B382B06DDCE
:104CF00001230B4000249946A046002339E61F2BD0
:104D000025DC049C2D4D464660195246444686409B
:104D1000DC4082405746301C2243DF40441EA04105
:104D200002433B1C540709D00F201040042805D033
:104D3000101D9042924152429B18021C1D021AD52E
:104D400001230B4000249946A046012311E61C488C
:104D5000049C5546001BC540281C202B16D0194E1C
:104D60005746A21997403A1C43461A43531E9A418C
:104D700002430023D6E758075B02D2081C0B01232D
:104D80000B401043994680460023F2E50022EBE7F2
:104D90008024240350460123044319402403240B98
:104DA0008946044BE5E5C046FF030000FFFFFFFE18
:104DB000FE070000FF07000002FCFFFF1E040000CA
:104DC000E2FBFFFF3E04000043001B0E5A1C4102A1
:104DD000D2B270B54C0AC50F012A17DDE02292004D
:104DE0006407090B9818002200231E0D221C3405AD
:104DF0000C431B4940054008214001434900490834
:104E0000ED070B1C2B43101C191C70BD002B15D17A
:104E1000002C1CD0201CFEF7CBFF0A281ADC0B212B
:104E2000091A231CCB40191C031C15339C400D4B45
:104E30000903181A4005090B400DD4E7002C03D0D4
:104E40006407090B0848CEE707480021CBE700209C
:104E50000021C8E7011C0B398C40211C0024E6E727
:104E6000FFFF0F8089030000FF070000F0B54B0033
:104E70000D03420F5B0D6D0A15435A1C5205CC0FF2
:104E8000C600520D012A27DD394FDA19FE2A1ADC35
:104E9000002A35DD8001ED00431E98412843760F3E
:104EA0003043430704D00F230340042B00D00430C9
:104EB0008021C904014027D00132FF2A1DD083017F
:104EC0005B0AD1B201E0FF2100235802C905400A64
:104ED000E40708432043F0BD002B06D1354311D130
:104EE0000021002043025B0AEFE72E43EBD0802035
:104EF000ED0080042843FF22D3E7FF210023E4E7ED
:104F000017320DDA05200022C008D1B2FF2AE9D1FC
:104F10000028D9D08023DB0303435B025B0AD4E77C
:104F20008022144912041543C91A1F290DDC124AA4
:104F3000371C9B18281C9F4098403B1C5A1E9341CD
:104F40001843CE4030430022ABE70C4F2A1CFF1A17
:104F5000FA40171C202909D0094A98188540281CB6
:104F60003043461EB041384300229AE70020F7E75D
:104F700080FCFFFF9E03000082FCFFFF7E03000019
:104F8000A2FCFFFF08B5031C081C191C00F002F866
:104F900008BDC04638B5051C0C1C131C291C221C5E
:104FA000022000F0D3FA38BD70B50D4E0D4D00242F
:104FB000AD1BAD1005D0A300F35801349847A542AE
:104FC000F9D101F00DF8084E084D0024AD1BAD10CD
:104FD00005D0A300F35801349847A542F9D170BD1C
:104FE000EC5F0000EC5F0000EC5F00000C60000074
:104FF00008B5034B011C186800F004F808BDC04652
:1050000040020020F0B5564644465F464D46F0B497
:105010000C1C0B3483B0061C162C2BD907239C4385
:105020002BD4A14229D8301C00F072FAF823FF33A8
:105030009C4226D8E208CA4DD300EB18DF689F4295
:1050400000D1BBE178680323FA68B96898433B183C
:10505000CA609160596801220A43301C5A6000F00E
:1050600059FA381C083003B03CBC90469946A24619
:10507000AB46F0BD1024A142D5D90C2333600020EB
:10508000F1E7630A00D18EE0042B00D93DE1A309CA
:1050900038339C465900B24D89006918CF68B9422F
:1050A00015D07A6803239A43101B0F2800DD8DE08A
:1050B00000287CDA032007E07A688243131B0F2B59
:1050C00000DD83E0002B72DAFF68B942F4D10122DF
:1050D00094442B1C2F6908339F4200D163E1786808
:1050E00003229043021C011B0F2900DD4AE16B6182
:1050F0002B6100295FDA9B4B984200D90FE1C3086E
:105100009A100121DB00EB18914068680A1C99682D
:105110000243FB60B9606A609F60CF6061468B109C
:1051200001219940914255D811420DD10323604687
:105130009843031C043349009C46114204D10423C4
:1051400049009C441142FAD0032080466246D300B5
:105150005B199A46181CE146C768B84207D124E19A
:10516000002B00DB33E1FF68B84200D11DE17A6813
:1051700043469A43131B0F2BF2DD01213A190C43CE
:105180007C60F868BC680835E06019438460EA60B8
:10519000AA60301CD56095605160D35000F0BAF918
:1051A000381C08305FE73F227E21944673E7FB6896
:1051B000B968CB609960BA18516801230B43301C61
:1051C000536000F0A7F9381C08304CE7012040423A
:1051D00084447CE7AF680323786898438146A04203
:1051E00003D3031B0F2B00DD81E05F4A5F4B494671
:1051F0001B68106879180191E3189346013000D1BB
:1052000047E15B495B181B0B1B030093301C0099A3
:1052100000F082F9021C804601325DD0019B83427E
:1052200000D9EBE053480099026882468B18019937
:105230000360414500D135E15A461268013200D180
:1052400043E1019841460A1A9B1851460B60072317
:105250004246134000D104E1D21A08329046464A31
:10526000D31A0098021C42441205120D9A1A111CFE
:10527000301C934600F050F9411C00D121E1424618
:10528000801A584401231843524611680B1C5B4492
:105290004146A96013604860AF4213D04A460F2AC6
:1052A00000D8E9E04A46786807210C3A8A43012190
:1052B0000140114379600520B918486088600F2AC1
:1052C00000D906E12D4A1068834200D913602C4AA8
:1052D00011688B4200D91360AF6803237A689A4340
:1052E000131B944200D9AEE00F2B00DCABE001228F
:1052F000211C11433C1913437960301CAC6063607E
:1053000000F008F9381C0830ADE6142B6ED9542B88
:1053100000D99DE0230B6E339C465900BBE6430A3F
:10532000042B67D9142B00D9B6E0191C5B31480057
:105330008000401983688146834200D194E00321B4
:1053400088465968404681438A4202D29B68994503
:10535000F7D1D9686A68F960BB608F60DF60DDE60D
:1053600044020020FF01000050060020FC0C002039
:105370000F100000000D002008100000F80C0020A5
:10538000F40C002001203A19044308437C606A6150
:105390002A615060D3609360301C515000F0BAF81D
:1053A000381C08305FE66A68B8E60122914443463B
:1053B0004A460830134200D0CEE62CE03B1C7F6901
:1053C000023208339446BB4200D182E63AE6BA186C
:1053D0005068012303435360FB68BA68301CD360F4
:1053E0009A6000F097F8381C08303CE65B339C4626
:1053F000590050E681093831480099E7AF4200D0A2
:105400006AE70FE75346186801225242083B94446A
:105410008246984277D1434660460342F2D16B6898
:105420008B436B604900994200D9D3E6002900D133
:10543000D0E6CC46194200D088E6042249009444C4
:105440001942FAD082E6301C00F064F800200AE627
:10545000AA225200934214D8E30B77339C4659009A
:1054600019E680235B01FCE68910686801228A4006
:1054700002436A60191C6EE701234B604746002215
:105480002EE7224A934218D8A30C7C339C4659003D
:1054900001E610330093B9E6542B22D8010B6E318C
:1054A000480045E70A0500D0C6E60099AA68081C2E
:1054B000484401210143516004E77E23FC219C46BE
:1054C000E9E5002301209B46DEE64346584603609B
:1054D000BDE6391C0831301C00F014F951460B6848
:1054E000F0E6AA2149008B4203D8C10B773148006E
:1054F0001EE706498B4203D8810C7C31480017E730
:10550000FC207E2114E76B688CE7C0465405000040
:105510007047C0467047C04638B5074C0023051C8D
:10552000081C2360FCF79EFC431C00D038BD236898
:10553000002BFBD02B60F9E73C0D00200023C25C60
:105540000133002AFBD1581E7047C046F0B54F46C4
:105550004646C0B498462B4BA4251B686D005C5989
:1055600083B0061C0F1C91460193002C44D0656843
:105570001F2D1ADD244B002B02D1012040421CE0DC
:10558000C8204000FFF734FD041EF6D0002545601A
:10559000A42301985B00C05801992060CC50C4231B
:1055A0005B00E550C6235B00E550002E0AD16B1C62
:1055B0000235AD00636000202F5103B00CBC904653
:1055C0009946F0BDAB00E318882248469850C420A5
:1055D0004000221810680121A9400843106084226D
:1055E000520040469850022EE1D1C6225200A31824
:1055F000186801431960DAE71C1C4D34FF345C5114
:10560000B5E7C046DC5F0000F14F000008B5034B72
:10561000002B02D0024800F005F808BD0000000091
:105620003556000008B5011C002200200023FFF7BA
:105630008DFF08BD38B5094B094DED1AAD1009D0E5
:10564000013DAC00E41800E0013D23689847043CAC
:10565000002DF9D100F0DAFC38BDC0460000000092
:1056600000000000F8B50F1C041CFFF751FF204D8F
:10567000204AAB685E6803239E43F71BBF183F0BAD
:105680001D4B013F3F039F4207DD201C0021FFF718
:1056900043FFAA689319984204D0201CFFF73AFFF1
:1056A0000020F8BD7942201CFFF736FF01300DD0F5
:1056B000AB68F61B012216435E60104B201C1A6873
:1056C000D71B1F60FFF726FF0120EAE7201C0021FF
:1056D000FFF722FFAB68C21A0F2ADEDD084909680E
:1056E000401A0649086001210A435A60D5E7C046BE
:1056F00044020020EF0F0000FF0F0000000D00200B
:1057000050060020F0B5474680B4051C0C1E55D04D
:10571000FFF7FEFE211C083948680127031CBB4324
:10572000CA185468804603208443201C534CA66842
:10573000964260D00026B4464646506037420AD1B1
:105740000E68271C891B9B198E680837BE426BD0D8
:10575000CF68F760BE601618766801273E4207D111
:105760001B18604600282CD09068D268C2609060F8
:105770000122181C104366464860CB50002E1AD1F7
:105780003F48834229D95A0A042A50D89E093836FC
:10579000700080002018826882424ED00326546830
:1057A000B443A34202D292689042F8D1D368CB604E
:1057B0008A609960D160281CFFF7ACFE04BC90465B
:1057C000F0BD90682F4EB042CFD11F43C1608160C1
:1057D000C86088604F60CB50EDE7DB0898108240CE
:1057E0006068DB0002436260E418A368CC608B60F1
:1057F000A160D960DFE7C3184046074206D10A68B6
:10580000891A88689B18CA68C260906001221A438E
:105810004A601D4AA16012689342CCD31B4B281CDE
:105820001968FFF71FFFC6E70126B44693E7142A5D
:105830000CD8161C5B367000ABE7B6100123B340E2
:105840001E1C63681E436660131CB0E7542A03D80D
:105850001E0B6E3670009CE7AA204000824203D8DF
:10586000DE0B7736700094E70948824203D89E0C1D
:105870007C3670008DE7FC207E268AE744020020FB
:10588000FF0100004C0200204C060020FC0C002010
:1058900054050000420000F840A004400100000050
:1058A000420000F844A0044002000000C00000F8DC
:1058B00000C0044001000000000000F80490044013
:1058C00002000000000000F80890044004000000FE
:1058D000C00000F81CC0044080000000C00000F8B8
:1058E00010C0044010000000C00000F808C00440D0
:1058F00004000000C00000F80CC0044008000000D4
:10590000800000F80CB0044008000000800000F89F
:1059100010B0044010000000800000F818B00440EF
:1059200040000000800000F81CB00440800000002F
:10593000800000F814B0044020000000C00000F80F
:1059400004C0044002000000800000F800B00440E1
:1059500001000000400000F800A004400100000029
:10596000400000F804A0044002000000400000F8DD
:105970000CA0044008000000400000F808A004400B
:1059800004000000C00000F814C004402000000023
:10599000C00000F818C0044040000000800000F87B
:1059A00004B0044002000000800000F808B0044089
:1059B00004000000020100F850D004401000000074
:1059C000020100F854D0044020000000030100F858
:1059D00078D00440400000000015191500010000B7
:1059E00070FDFF1F12000000000200009AFDFF1F63
:1059F0004300000000030000F4FDFF1F0000000052
:105A00000103090482FDFF1F0000000002030904D6
:105A1000DEFDFF1F0000000003030904F8FDFF1F67
:105A20000000000000000000000000000000000076
:105A30000000000000000000E5260000000000005B
:105A4000000000000000000029290000412900009A
:105A5000F92800000929000001290000112900008F
:105A60007928000091280000B1280000B928000022
:105A7000C3280000CD280000D9280000E928000034
:105A8000192900002129000059270000652700007E
:105A9000712700007D2700005129000035290000F2
:105AA000000000000000000039280000512800001C
:105AB00009280000192800001128000021280000F2
:105AC00089270000A1270000C1270000C927000086
:105AD000D3270000DD270000E9270000F927000098
